{
  "contracts/SimpleDEX.sol": {
    "SimpleDEX": {
      "abi": [
        {
          "inputs": [
            {
              "internalType": "address",
              "name": "_tokenA",
              "type": "address"
            },
            {
              "internalType": "address",
              "name": "_tokenB",
              "type": "address"
            }
          ],
          "stateMutability": "nonpayable",
          "type": "constructor"
        },
        {
          "inputs": [
            {
              "internalType": "address",
              "name": "owner",
              "type": "address"
            }
          ],
          "name": "OwnableInvalidOwner",
          "type": "error"
        },
        {
          "inputs": [
            {
              "internalType": "address",
              "name": "account",
              "type": "address"
            }
          ],
          "name": "OwnableUnauthorizedAccount",
          "type": "error"
        },
        {
          "anonymous": false,
          "inputs": [
            {
              "indexed": true,
              "internalType": "address",
              "name": "provider",
              "type": "address"
            },
            {
              "indexed": false,
              "internalType": "uint256",
              "name": "amountA",
              "type": "uint256"
            },
            {
              "indexed": false,
              "internalType": "uint256",
              "name": "amountB",
              "type": "uint256"
            }
          ],
          "name": "LiquidityAdded",
          "type": "event"
        },
        {
          "anonymous": false,
          "inputs": [
            {
              "indexed": true,
              "internalType": "address",
              "name": "provider",
              "type": "address"
            },
            {
              "indexed": false,
              "internalType": "uint256",
              "name": "amountA",
              "type": "uint256"
            },
            {
              "indexed": false,
              "internalType": "uint256",
              "name": "amountB",
              "type": "uint256"
            }
          ],
          "name": "LiquidityRemoved",
          "type": "event"
        },
        {
          "anonymous": false,
          "inputs": [
            {
              "indexed": true,
              "internalType": "address",
              "name": "previousOwner",
              "type": "address"
            },
            {
              "indexed": true,
              "internalType": "address",
              "name": "newOwner",
              "type": "address"
            }
          ],
          "name": "OwnershipTransferred",
          "type": "event"
        },
        {
          "anonymous": false,
          "inputs": [
            {
              "indexed": true,
              "internalType": "address",
              "name": "trader",
              "type": "address"
            },
            {
              "indexed": false,
              "internalType": "address",
              "name": "tokenIn",
              "type": "address"
            },
            {
              "indexed": false,
              "internalType": "uint256",
              "name": "amountIn",
              "type": "uint256"
            },
            {
              "indexed": false,
              "internalType": "address",
              "name": "tokenOut",
              "type": "address"
            },
            {
              "indexed": false,
              "internalType": "uint256",
              "name": "amountOut",
              "type": "uint256"
            }
          ],
          "name": "TokensSwapped",
          "type": "event"
        },
        {
          "inputs": [
            {
              "internalType": "uint256",
              "name": "amountA",
              "type": "uint256"
            },
            {
              "internalType": "uint256",
              "name": "amountB",
              "type": "uint256"
            }
          ],
          "name": "addLiquidity",
          "outputs": [],
          "stateMutability": "nonpayable",
          "type": "function"
        },
        {
          "inputs": [
            {
              "internalType": "address",
              "name": "_token",
              "type": "address"
            }
          ],
          "name": "getPrice",
          "outputs": [
            {
              "internalType": "uint256",
              "name": "",
              "type": "uint256"
            }
          ],
          "stateMutability": "view",
          "type": "function"
        },
        {
          "inputs": [],
          "name": "owner",
          "outputs": [
            {
              "internalType": "address",
              "name": "",
              "type": "address"
            }
          ],
          "stateMutability": "view",
          "type": "function"
        },
        {
          "inputs": [
            {
              "internalType": "uint256",
              "name": "amountA",
              "type": "uint256"
            },
            {
              "internalType": "uint256",
              "name": "amountB",
              "type": "uint256"
            }
          ],
          "name": "removeLiquidity",
          "outputs": [],
          "stateMutability": "nonpayable",
          "type": "function"
        },
        {
          "inputs": [],
          "name": "renounceOwnership",
          "outputs": [],
          "stateMutability": "nonpayable",
          "type": "function"
        },
        {
          "inputs": [],
          "name": "reserveA",
          "outputs": [
            {
              "internalType": "uint256",
              "name": "",
              "type": "uint256"
            }
          ],
          "stateMutability": "view",
          "type": "function"
        },
        {
          "inputs": [],
          "name": "reserveB",
          "outputs": [
            {
              "internalType": "uint256",
              "name": "",
              "type": "uint256"
            }
          ],
          "stateMutability": "view",
          "type": "function"
        },
        {
          "inputs": [
            {
              "internalType": "uint256",
              "name": "amountAIn",
              "type": "uint256"
            }
          ],
          "name": "swapAforB",
          "outputs": [],
          "stateMutability": "nonpayable",
          "type": "function"
        },
        {
          "inputs": [
            {
              "internalType": "uint256",
              "name": "amountBIn",
              "type": "uint256"
            }
          ],
          "name": "swapBforA",
          "outputs": [],
          "stateMutability": "nonpayable",
          "type": "function"
        },
        {
          "inputs": [],
          "name": "tokenA",
          "outputs": [
            {
              "internalType": "contract IERC20",
              "name": "",
              "type": "address"
            }
          ],
          "stateMutability": "view",
          "type": "function"
        },
        {
          "inputs": [],
          "name": "tokenB",
          "outputs": [
            {
              "internalType": "contract IERC20",
              "name": "",
              "type": "address"
            }
          ],
          "stateMutability": "view",
          "type": "function"
        },
        {
          "inputs": [
            {
              "internalType": "address",
              "name": "newOwner",
              "type": "address"
            }
          ],
          "name": "transferOwnership",
          "outputs": [],
          "stateMutability": "nonpayable",
          "type": "function"
        }
      ],
      "evm": {
        "bytecode": {
          "linkReferences": {},
          "object": "608060405234801561001057600080fd5b50604051611bce380380611bce83398181016040528101906100329190610265565b33600073ffffffffffffffffffffffffffffffffffffffff168173ffffffffffffffffffffffffffffffffffffffff16036100a55760006040517f1e4fbdf700000000000000000000000000000000000000000000000000000000815260040161009c91906102b4565b60405180910390fd5b6100b48161013e60201b60201c565b5081600160006101000a81548173ffffffffffffffffffffffffffffffffffffffff021916908373ffffffffffffffffffffffffffffffffffffffff16021790555080600260006101000a81548173ffffffffffffffffffffffffffffffffffffffff021916908373ffffffffffffffffffffffffffffffffffffffff16021790555050506102cf565b60008060009054906101000a900473ffffffffffffffffffffffffffffffffffffffff169050816000806101000a81548173ffffffffffffffffffffffffffffffffffffffff021916908373ffffffffffffffffffffffffffffffffffffffff1602179055508173ffffffffffffffffffffffffffffffffffffffff168173ffffffffffffffffffffffffffffffffffffffff167f8be0079c531659141344cd1fd0a4f28419497f9722a3daafe3b4186f6b6457e060405160405180910390a35050565b600080fd5b600073ffffffffffffffffffffffffffffffffffffffff82169050919050565b600061023282610207565b9050919050565b61024281610227565b811461024d57600080fd5b50565b60008151905061025f81610239565b92915050565b6000806040838503121561027c5761027b610202565b5b600061028a85828601610250565b925050602061029b85828601610250565b9150509250929050565b6102ae81610227565b82525050565b60006020820190506102c960008301846102a5565b92915050565b6118f0806102de6000396000f3fe608060405234801561001057600080fd5b50600436106100b45760003560e01c80638da5cb5b116100715780638da5cb5b146101695780639cd441da146101875780639d7de6b3146101a3578063dc5fa6c5146101bf578063e4f1f70a146101dd578063f2fde38b146101f9576100b4565b80630fc63d10146100b957806319e36f3b146100d757806341976e09146100f55780635f64b55b14610125578063715018a6146101435780638014a7aa1461014d575b600080fd5b6100c1610215565b6040516100ce919061110f565b60405180910390f35b6100df61023b565b6040516100ec9190611143565b60405180910390f35b61010f600480360381019061010a91906111a1565b610241565b60405161011c9190611143565b60405180910390f35b61012d610381565b60405161013a919061110f565b60405180910390f35b61014b6103a7565b005b610167600480360381019061016291906111fa565b6103bb565b005b6101716106ab565b60405161017e9190611236565b60405180910390f35b6101a1600480360381019061019c9190611251565b6106d4565b005b6101bd60048036038101906101b89190611251565b6108f7565b005b6101c7610b1a565b6040516101d49190611143565b60405180910390f35b6101f760048036038101906101f291906111fa565b610b20565b005b610213600480360381019061020e91906111a1565b610e10565b005b600160009054906101000a900473ffffffffffffffffffffffffffffffffffffffff1681565b60045481565b6000600160009054906101000a900473ffffffffffffffffffffffffffffffffffffffff1673ffffffffffffffffffffffffffffffffffffffff168273ffffffffffffffffffffffffffffffffffffffff16036102c257600354670de0b6b3a76400006004546102b191906112c0565b6102bb9190611331565b905061037c565b600260009054906101000a900473ffffffffffffffffffffffffffffffffffffffff1673ffffffffffffffffffffffffffffffffffffffff168273ffffffffffffffffffffffffffffffffffffffff160361034157600454670de0b6b3a764000060035461033091906112c0565b61033a9190611331565b905061037c565b6040517f08c379a0000000000000000000000000000000000000000000000000000000008152600401610373906113bf565b60405180910390fd5b919050565b600260009054906101000a900473ffffffffffffffffffffffffffffffffffffffff1681565b6103af610e96565b6103b96000610f1d565b565b600081116103fe576040517f08c379a00000000000000000000000000000000000000000000000000000000081526004016103f59061142b565b60405180910390fd5b600061040f82600454600354610fe1565b905060008111610454576040517f08c379a000000000000000000000000000000000000000000000000000000000815260040161044b90611497565b60405180910390fd5b806003541015610499576040517f08c379a000000000000000000000000000000000000000000000000000000000815260040161049090611529565b60405180910390fd5b81600460008282546104ab9190611549565b9250508190555080600360008282546104c4919061157d565b925050819055503373ffffffffffffffffffffffffffffffffffffffff167f631fb37dba9bbcb8b2f3be2d669e365ae9f1bd850cc57dfe8b7ccd7d979a2bba600260009054906101000a900473ffffffffffffffffffffffffffffffffffffffff1684600160009054906101000a900473ffffffffffffffffffffffffffffffffffffffff168560405161055b94939291906115b1565b60405180910390a2600260009054906101000a900473ffffffffffffffffffffffffffffffffffffffff1673ffffffffffffffffffffffffffffffffffffffff166323b872dd3330856040518463ffffffff1660e01b81526004016105c2939291906115f6565b6020604051808303816000875af11580156105e1573d6000803e3d6000fd5b505050506040513d601f19601f820116820180604052508101906106059190611665565b50600160009054906101000a900473ffffffffffffffffffffffffffffffffffffffff1673ffffffffffffffffffffffffffffffffffffffff1663a9059cbb33836040518363ffffffff1660e01b8152600401610663929190611692565b6020604051808303816000875af1158015610682573d6000803e3d6000fd5b505050506040513d601f19601f820116820180604052508101906106a69190611665565b505050565b60008060009054906101000a900473ffffffffffffffffffffffffffffffffffffffff16905090565b6106dc610e96565b6000821180156106ec5750600081115b61072b576040517f08c379a000000000000000000000000000000000000000000000000000000000815260040161072290611707565b60405180910390fd5b600160009054906101000a900473ffffffffffffffffffffffffffffffffffffffff1673ffffffffffffffffffffffffffffffffffffffff166323b872dd3330856040518463ffffffff1660e01b815260040161078a939291906115f6565b6020604051808303816000875af11580156107a9573d6000803e3d6000fd5b505050506040513d601f19601f820116820180604052508101906107cd9190611665565b50600260009054906101000a900473ffffffffffffffffffffffffffffffffffffffff1673ffffffffffffffffffffffffffffffffffffffff166323b872dd3330846040518463ffffffff1660e01b815260040161082d939291906115f6565b6020604051808303816000875af115801561084c573d6000803e3d6000fd5b505050506040513d601f19601f820116820180604052508101906108709190611665565b5081600360008282546108839190611549565b92505081905550806004600082825461089c9190611549565b925050819055503373ffffffffffffffffffffffffffffffffffffffff167fac1d76749e5447b7b16f5ab61447e1bd502f3bb4807af3b28e620d1700a6ee4583836040516108eb929190611727565b60405180910390a25050565b6108ff610e96565b600354821115801561091357506004548111155b610952576040517f08c379a00000000000000000000000000000000000000000000000000000000081526004016109499061179c565b60405180910390fd5b8160036000828254610964919061157d565b92505081905550806004600082825461097d919061157d565b925050819055503373ffffffffffffffffffffffffffffffffffffffff167f96cd817c6329656790ef8fba7675405193677d39619571282f5e21f3a98cd05983836040516109cc929190611727565b60405180910390a2600160009054906101000a900473ffffffffffffffffffffffffffffffffffffffff1673ffffffffffffffffffffffffffffffffffffffff1663a9059cbb33846040518363ffffffff1660e01b8152600401610a31929190611692565b6020604051808303816000875af1158015610a50573d6000803e3d6000fd5b505050506040513d601f19601f82011682018060405250810190610a749190611665565b50600260009054906101000a900473ffffffffffffffffffffffffffffffffffffffff1673ffffffffffffffffffffffffffffffffffffffff1663a9059cbb33836040518363ffffffff1660e01b8152600401610ad2929190611692565b6020604051808303816000875af1158015610af1573d6000803e3d6000fd5b505050506040513d601f19601f82011682018060405250810190610b159190611665565b505050565b60035481565b60008111610b63576040517f08c379a0000000000000000000000000000000000000000000000000000000008152600401610b5a9061142b565b60405180910390fd5b6000610b7482600354600454610fe1565b905060008111610bb9576040517f08c379a0000000000000000000000000000000000000000000000000000000008152600401610bb090611497565b60405180910390fd5b806004541015610bfe576040517f08c379a0000000000000000000000000000000000000000000000000000000008152600401610bf59061182e565b60405180910390fd5b8160036000828254610c109190611549565b925050819055508060046000828254610c29919061157d565b925050819055503373ffffffffffffffffffffffffffffffffffffffff167f631fb37dba9bbcb8b2f3be2d669e365ae9f1bd850cc57dfe8b7ccd7d979a2bba600160009054906101000a900473ffffffffffffffffffffffffffffffffffffffff1684600260009054906101000a900473ffffffffffffffffffffffffffffffffffffffff1685604051610cc094939291906115b1565b60405180910390a2600160009054906101000a900473ffffffffffffffffffffffffffffffffffffffff1673ffffffffffffffffffffffffffffffffffffffff166323b872dd3330856040518463ffffffff1660e01b8152600401610d27939291906115f6565b6020604051808303816000875af1158015610d46573d6000803e3d6000fd5b505050506040513d601f19601f82011682018060405250810190610d6a9190611665565b50600260009054906101000a900473ffffffffffffffffffffffffffffffffffffffff1673ffffffffffffffffffffffffffffffffffffffff1663a9059cbb33836040518363ffffffff1660e01b8152600401610dc8929190611692565b6020604051808303816000875af1158015610de7573d6000803e3d6000fd5b505050506040513d601f19601f82011682018060405250810190610e0b9190611665565b505050565b610e18610e96565b600073ffffffffffffffffffffffffffffffffffffffff168173ffffffffffffffffffffffffffffffffffffffff1603610e8a5760006040517f1e4fbdf7000000000000000000000000000000000000000000000000000000008152600401610e819190611236565b60405180910390fd5b610e9381610f1d565b50565b610e9e611088565b73ffffffffffffffffffffffffffffffffffffffff16610ebc6106ab565b73ffffffffffffffffffffffffffffffffffffffff1614610f1b57610edf611088565b6040517f118cdaa7000000000000000000000000000000000000000000000000000000008152600401610f129190611236565b60405180910390fd5b565b60008060009054906101000a900473ffffffffffffffffffffffffffffffffffffffff169050816000806101000a81548173ffffffffffffffffffffffffffffffffffffffff021916908373ffffffffffffffffffffffffffffffffffffffff1602179055508173ffffffffffffffffffffffffffffffffffffffff168173ffffffffffffffffffffffffffffffffffffffff167f8be0079c531659141344cd1fd0a4f28419497f9722a3daafe3b4186f6b6457e060405160405180910390a35050565b60008083118015610ff25750600082115b611031576040517f08c379a00000000000000000000000000000000000000000000000000000000081526004016110289061189a565b60405180910390fd5b60006103e58561104191906112c0565b90506000838261105191906112c0565b90506000826103e88761106491906112c0565b61106e9190611549565b9050808261107c9190611331565b93505050509392505050565b600033905090565b600073ffffffffffffffffffffffffffffffffffffffff82169050919050565b6000819050919050565b60006110d56110d06110cb84611090565b6110b0565b611090565b9050919050565b60006110e7826110ba565b9050919050565b60006110f9826110dc565b9050919050565b611109816110ee565b82525050565b60006020820190506111246000830184611100565b92915050565b6000819050919050565b61113d8161112a565b82525050565b60006020820190506111586000830184611134565b92915050565b600080fd5b600061116e82611090565b9050919050565b61117e81611163565b811461118957600080fd5b50565b60008135905061119b81611175565b92915050565b6000602082840312156111b7576111b661115e565b5b60006111c58482850161118c565b91505092915050565b6111d78161112a565b81146111e257600080fd5b50565b6000813590506111f4816111ce565b92915050565b6000602082840312156112105761120f61115e565b5b600061121e848285016111e5565b91505092915050565b61123081611163565b82525050565b600060208201905061124b6000830184611227565b92915050565b600080604083850312156112685761126761115e565b5b6000611276858286016111e5565b9250506020611287858286016111e5565b9150509250929050565b7f4e487b7100000000000000000000000000000000000000000000000000000000600052601160045260246000fd5b60006112cb8261112a565b91506112d68361112a565b92508282026112e48161112a565b915082820484148315176112fb576112fa611291565b5b5092915050565b7f4e487b7100000000000000000000000000000000000000000000000000000000600052601260045260246000fd5b600061133c8261112a565b91506113478361112a565b92508261135757611356611302565b5b828204905092915050565b600082825260208201905092915050565b7f496e76616c696420746f6b656e20616464726573730000000000000000000000600082015250565b60006113a9601583611362565b91506113b482611373565b602082019050919050565b600060208201905081810360008301526113d88161139c565b9050919050565b7f416d6f756e74206d7573742062652067726561746572207468616e2030000000600082015250565b6000611415601d83611362565b9150611420826113df565b602082019050919050565b6000602082019050818103600083015261144481611408565b9050919050565b7f496e73756666696369656e74206f757470757420616d6f756e74000000000000600082015250565b6000611481601a83611362565b915061148c8261144b565b602082019050919050565b600060208201905081810360008301526114b081611474565b9050919050565b7f496e73756666696369656e74206c697175696469747920666f7220546f6b656e60008201527f4100000000000000000000000000000000000000000000000000000000000000602082015250565b6000611513602183611362565b915061151e826114b7565b604082019050919050565b6000602082019050818103600083015261154281611506565b9050919050565b60006115548261112a565b915061155f8361112a565b925082820190508082111561157757611576611291565b5b92915050565b60006115888261112a565b91506115938361112a565b92508282039050818111156115ab576115aa611291565b5b92915050565b60006080820190506115c66000830187611227565b6115d36020830186611134565b6115e06040830185611227565b6115ed6060830184611134565b95945050505050565b600060608201905061160b6000830186611227565b6116186020830185611227565b6116256040830184611134565b949350505050565b60008115159050919050565b6116428161162d565b811461164d57600080fd5b50565b60008151905061165f81611639565b92915050565b60006020828403121561167b5761167a61115e565b5b600061168984828501611650565b91505092915050565b60006040820190506116a76000830185611227565b6116b46020830184611134565b9392505050565b7f416d6f756e7473206d7573742062652067726561746572207468616e20300000600082015250565b60006116f1601e83611362565b91506116fc826116bb565b602082019050919050565b60006020820190508181036000830152611720816116e4565b9050919050565b600060408201905061173c6000830185611134565b6117496020830184611134565b9392505050565b7f4e6f7420656e6f756768206c6971756964697479000000000000000000000000600082015250565b6000611786601483611362565b915061179182611750565b602082019050919050565b600060208201905081810360008301526117b581611779565b9050919050565b7f496e73756666696369656e74206c697175696469747920666f7220546f6b656e60008201527f4200000000000000000000000000000000000000000000000000000000000000602082015250565b6000611818602183611362565b9150611823826117bc565b604082019050919050565b600060208201905081810360008301526118478161180b565b9050919050565b7f496e73756666696369656e74206c697175696469747900000000000000000000600082015250565b6000611884601683611362565b915061188f8261184e565b602082019050919050565b600060208201905081810360008301526118b381611877565b905091905056fea2646970667358221220b4bb38bdaf175aa70814435b1b93503440d914f5ae90fa00781508cefb779d9c64736f6c634300081c0033",
          "opcodes": "PUSH1 0x80 PUSH1 0x40 MSTORE CALLVALUE DUP1 ISZERO PUSH2 0x10 JUMPI PUSH1 0x0 DUP1 REVERT JUMPDEST POP PUSH1 0x40 MLOAD PUSH2 0x1BCE CODESIZE SUB DUP1 PUSH2 0x1BCE DUP4 CODECOPY DUP2 DUP2 ADD PUSH1 0x40 MSTORE DUP2 ADD SWAP1 PUSH2 0x32 SWAP2 SWAP1 PUSH2 0x265 JUMP JUMPDEST CALLER PUSH1 0x0 PUSH20 0xFFFFFFFFFFFFFFFFFFFFFFFFFFFFFFFFFFFFFFFF AND DUP2 PUSH20 0xFFFFFFFFFFFFFFFFFFFFFFFFFFFFFFFFFFFFFFFF AND SUB PUSH2 0xA5 JUMPI PUSH1 0x0 PUSH1 0x40 MLOAD PUSH32 0x1E4FBDF700000000000000000000000000000000000000000000000000000000 DUP2 MSTORE PUSH1 0x4 ADD PUSH2 0x9C SWAP2 SWAP1 PUSH2 0x2B4 JUMP JUMPDEST PUSH1 0x40 MLOAD DUP1 SWAP2 SUB SWAP1 REVERT JUMPDEST PUSH2 0xB4 DUP2 PUSH2 0x13E PUSH1 0x20 SHL PUSH1 0x20 SHR JUMP JUMPDEST POP DUP2 PUSH1 0x1 PUSH1 0x0 PUSH2 0x100 EXP DUP2 SLOAD DUP2 PUSH20 0xFFFFFFFFFFFFFFFFFFFFFFFFFFFFFFFFFFFFFFFF MUL NOT AND SWAP1 DUP4 PUSH20 0xFFFFFFFFFFFFFFFFFFFFFFFFFFFFFFFFFFFFFFFF AND MUL OR SWAP1 SSTORE POP DUP1 PUSH1 0x2 PUSH1 0x0 PUSH2 0x100 EXP DUP2 SLOAD DUP2 PUSH20 0xFFFFFFFFFFFFFFFFFFFFFFFFFFFFFFFFFFFFFFFF MUL NOT AND SWAP1 DUP4 PUSH20 0xFFFFFFFFFFFFFFFFFFFFFFFFFFFFFFFFFFFFFFFF AND MUL OR SWAP1 SSTORE POP POP POP PUSH2 0x2CF JUMP JUMPDEST PUSH1 0x0 DUP1 PUSH1 0x0 SWAP1 SLOAD SWAP1 PUSH2 0x100 EXP SWAP1 DIV PUSH20 0xFFFFFFFFFFFFFFFFFFFFFFFFFFFFFFFFFFFFFFFF AND SWAP1 POP DUP2 PUSH1 0x0 DUP1 PUSH2 0x100 EXP DUP2 SLOAD DUP2 PUSH20 0xFFFFFFFFFFFFFFFFFFFFFFFFFFFFFFFFFFFFFFFF MUL NOT AND SWAP1 DUP4 PUSH20 0xFFFFFFFFFFFFFFFFFFFFFFFFFFFFFFFFFFFFFFFF AND MUL OR SWAP1 SSTORE POP DUP2 PUSH20 0xFFFFFFFFFFFFFFFFFFFFFFFFFFFFFFFFFFFFFFFF AND DUP2 PUSH20 0xFFFFFFFFFFFFFFFFFFFFFFFFFFFFFFFFFFFFFFFF AND PUSH32 0x8BE0079C531659141344CD1FD0A4F28419497F9722A3DAAFE3B4186F6B6457E0 PUSH1 0x40 MLOAD PUSH1 0x40 MLOAD DUP1 SWAP2 SUB SWAP1 LOG3 POP POP JUMP JUMPDEST PUSH1 0x0 DUP1 REVERT JUMPDEST PUSH1 0x0 PUSH20 0xFFFFFFFFFFFFFFFFFFFFFFFFFFFFFFFFFFFFFFFF DUP3 AND SWAP1 POP SWAP2 SWAP1 POP JUMP JUMPDEST PUSH1 0x0 PUSH2 0x232 DUP3 PUSH2 0x207 JUMP JUMPDEST SWAP1 POP SWAP2 SWAP1 POP JUMP JUMPDEST PUSH2 0x242 DUP2 PUSH2 0x227 JUMP JUMPDEST DUP2 EQ PUSH2 0x24D JUMPI PUSH1 0x0 DUP1 REVERT JUMPDEST POP JUMP JUMPDEST PUSH1 0x0 DUP2 MLOAD SWAP1 POP PUSH2 0x25F DUP2 PUSH2 0x239 JUMP JUMPDEST SWAP3 SWAP2 POP POP JUMP JUMPDEST PUSH1 0x0 DUP1 PUSH1 0x40 DUP4 DUP6 SUB SLT ISZERO PUSH2 0x27C JUMPI PUSH2 0x27B PUSH2 0x202 JUMP JUMPDEST JUMPDEST PUSH1 0x0 PUSH2 0x28A DUP6 DUP3 DUP7 ADD PUSH2 0x250 JUMP JUMPDEST SWAP3 POP POP PUSH1 0x20 PUSH2 0x29B DUP6 DUP3 DUP7 ADD PUSH2 0x250 JUMP JUMPDEST SWAP2 POP POP SWAP3 POP SWAP3 SWAP1 POP JUMP JUMPDEST PUSH2 0x2AE DUP2 PUSH2 0x227 JUMP JUMPDEST DUP3 MSTORE POP POP JUMP JUMPDEST PUSH1 0x0 PUSH1 0x20 DUP3 ADD SWAP1 POP PUSH2 0x2C9 PUSH1 0x0 DUP4 ADD DUP5 PUSH2 0x2A5 JUMP JUMPDEST SWAP3 SWAP2 POP POP JUMP JUMPDEST PUSH2 0x18F0 DUP1 PUSH2 0x2DE PUSH1 0x0 CODECOPY PUSH1 0x0 RETURN INVALID PUSH1 0x80 PUSH1 0x40 MSTORE CALLVALUE DUP1 ISZERO PUSH2 0x10 JUMPI PUSH1 0x0 DUP1 REVERT JUMPDEST POP PUSH1 0x4 CALLDATASIZE LT PUSH2 0xB4 JUMPI PUSH1 0x0 CALLDATALOAD PUSH1 0xE0 SHR DUP1 PUSH4 0x8DA5CB5B GT PUSH2 0x71 JUMPI DUP1 PUSH4 0x8DA5CB5B EQ PUSH2 0x169 JUMPI DUP1 PUSH4 0x9CD441DA EQ PUSH2 0x187 JUMPI DUP1 PUSH4 0x9D7DE6B3 EQ PUSH2 0x1A3 JUMPI DUP1 PUSH4 0xDC5FA6C5 EQ PUSH2 0x1BF JUMPI DUP1 PUSH4 0xE4F1F70A EQ PUSH2 0x1DD JUMPI DUP1 PUSH4 0xF2FDE38B EQ PUSH2 0x1F9 JUMPI PUSH2 0xB4 JUMP JUMPDEST DUP1 PUSH4 0xFC63D10 EQ PUSH2 0xB9 JUMPI DUP1 PUSH4 0x19E36F3B EQ PUSH2 0xD7 JUMPI DUP1 PUSH4 0x41976E09 EQ PUSH2 0xF5 JUMPI DUP1 PUSH4 0x5F64B55B EQ PUSH2 0x125 JUMPI DUP1 PUSH4 0x715018A6 EQ PUSH2 0x143 JUMPI DUP1 PUSH4 0x8014A7AA EQ PUSH2 0x14D JUMPI JUMPDEST PUSH1 0x0 DUP1 REVERT JUMPDEST PUSH2 0xC1 PUSH2 0x215 JUMP JUMPDEST PUSH1 0x40 MLOAD PUSH2 0xCE SWAP2 SWAP1 PUSH2 0x110F JUMP JUMPDEST PUSH1 0x40 MLOAD DUP1 SWAP2 SUB SWAP1 RETURN JUMPDEST PUSH2 0xDF PUSH2 0x23B JUMP JUMPDEST PUSH1 0x40 MLOAD PUSH2 0xEC SWAP2 SWAP1 PUSH2 0x1143 JUMP JUMPDEST PUSH1 0x40 MLOAD DUP1 SWAP2 SUB SWAP1 RETURN JUMPDEST PUSH2 0x10F PUSH1 0x4 DUP1 CALLDATASIZE SUB DUP2 ADD SWAP1 PUSH2 0x10A SWAP2 SWAP1 PUSH2 0x11A1 JUMP JUMPDEST PUSH2 0x241 JUMP JUMPDEST PUSH1 0x40 MLOAD PUSH2 0x11C SWAP2 SWAP1 PUSH2 0x1143 JUMP JUMPDEST PUSH1 0x40 MLOAD DUP1 SWAP2 SUB SWAP1 RETURN JUMPDEST PUSH2 0x12D PUSH2 0x381 JUMP JUMPDEST PUSH1 0x40 MLOAD PUSH2 0x13A SWAP2 SWAP1 PUSH2 0x110F JUMP JUMPDEST PUSH1 0x40 MLOAD DUP1 SWAP2 SUB SWAP1 RETURN JUMPDEST PUSH2 0x14B PUSH2 0x3A7 JUMP JUMPDEST STOP JUMPDEST PUSH2 0x167 PUSH1 0x4 DUP1 CALLDATASIZE SUB DUP2 ADD SWAP1 PUSH2 0x162 SWAP2 SWAP1 PUSH2 0x11FA JUMP JUMPDEST PUSH2 0x3BB JUMP JUMPDEST STOP JUMPDEST PUSH2 0x171 PUSH2 0x6AB JUMP JUMPDEST PUSH1 0x40 MLOAD PUSH2 0x17E SWAP2 SWAP1 PUSH2 0x1236 JUMP JUMPDEST PUSH1 0x40 MLOAD DUP1 SWAP2 SUB SWAP1 RETURN JUMPDEST PUSH2 0x1A1 PUSH1 0x4 DUP1 CALLDATASIZE SUB DUP2 ADD SWAP1 PUSH2 0x19C SWAP2 SWAP1 PUSH2 0x1251 JUMP JUMPDEST PUSH2 0x6D4 JUMP JUMPDEST STOP JUMPDEST PUSH2 0x1BD PUSH1 0x4 DUP1 CALLDATASIZE SUB DUP2 ADD SWAP1 PUSH2 0x1B8 SWAP2 SWAP1 PUSH2 0x1251 JUMP JUMPDEST PUSH2 0x8F7 JUMP JUMPDEST STOP JUMPDEST PUSH2 0x1C7 PUSH2 0xB1A JUMP JUMPDEST PUSH1 0x40 MLOAD PUSH2 0x1D4 SWAP2 SWAP1 PUSH2 0x1143 JUMP JUMPDEST PUSH1 0x40 MLOAD DUP1 SWAP2 SUB SWAP1 RETURN JUMPDEST PUSH2 0x1F7 PUSH1 0x4 DUP1 CALLDATASIZE SUB DUP2 ADD SWAP1 PUSH2 0x1F2 SWAP2 SWAP1 PUSH2 0x11FA JUMP JUMPDEST PUSH2 0xB20 JUMP JUMPDEST STOP JUMPDEST PUSH2 0x213 PUSH1 0x4 DUP1 CALLDATASIZE SUB DUP2 ADD SWAP1 PUSH2 0x20E SWAP2 SWAP1 PUSH2 0x11A1 JUMP JUMPDEST PUSH2 0xE10 JUMP JUMPDEST STOP JUMPDEST PUSH1 0x1 PUSH1 0x0 SWAP1 SLOAD SWAP1 PUSH2 0x100 EXP SWAP1 DIV PUSH20 0xFFFFFFFFFFFFFFFFFFFFFFFFFFFFFFFFFFFFFFFF AND DUP2 JUMP JUMPDEST PUSH1 0x4 SLOAD DUP2 JUMP JUMPDEST PUSH1 0x0 PUSH1 0x1 PUSH1 0x0 SWAP1 SLOAD SWAP1 PUSH2 0x100 EXP SWAP1 DIV PUSH20 0xFFFFFFFFFFFFFFFFFFFFFFFFFFFFFFFFFFFFFFFF AND PUSH20 0xFFFFFFFFFFFFFFFFFFFFFFFFFFFFFFFFFFFFFFFF AND DUP3 PUSH20 0xFFFFFFFFFFFFFFFFFFFFFFFFFFFFFFFFFFFFFFFF AND SUB PUSH2 0x2C2 JUMPI PUSH1 0x3 SLOAD PUSH8 0xDE0B6B3A7640000 PUSH1 0x4 SLOAD PUSH2 0x2B1 SWAP2 SWAP1 PUSH2 0x12C0 JUMP JUMPDEST PUSH2 0x2BB SWAP2 SWAP1 PUSH2 0x1331 JUMP JUMPDEST SWAP1 POP PUSH2 0x37C JUMP JUMPDEST PUSH1 0x2 PUSH1 0x0 SWAP1 SLOAD SWAP1 PUSH2 0x100 EXP SWAP1 DIV PUSH20 0xFFFFFFFFFFFFFFFFFFFFFFFFFFFFFFFFFFFFFFFF AND PUSH20 0xFFFFFFFFFFFFFFFFFFFFFFFFFFFFFFFFFFFFFFFF AND DUP3 PUSH20 0xFFFFFFFFFFFFFFFFFFFFFFFFFFFFFFFFFFFFFFFF AND SUB PUSH2 0x341 JUMPI PUSH1 0x4 SLOAD PUSH8 0xDE0B6B3A7640000 PUSH1 0x3 SLOAD PUSH2 0x330 SWAP2 SWAP1 PUSH2 0x12C0 JUMP JUMPDEST PUSH2 0x33A SWAP2 SWAP1 PUSH2 0x1331 JUMP JUMPDEST SWAP1 POP PUSH2 0x37C JUMP JUMPDEST PUSH1 0x40 MLOAD PUSH32 0x8C379A000000000000000000000000000000000000000000000000000000000 DUP2 MSTORE PUSH1 0x4 ADD PUSH2 0x373 SWAP1 PUSH2 0x13BF JUMP JUMPDEST PUSH1 0x40 MLOAD DUP1 SWAP2 SUB SWAP1 REVERT JUMPDEST SWAP2 SWAP1 POP JUMP JUMPDEST PUSH1 0x2 PUSH1 0x0 SWAP1 SLOAD SWAP1 PUSH2 0x100 EXP SWAP1 DIV PUSH20 0xFFFFFFFFFFFFFFFFFFFFFFFFFFFFFFFFFFFFFFFF AND DUP2 JUMP JUMPDEST PUSH2 0x3AF PUSH2 0xE96 JUMP JUMPDEST PUSH2 0x3B9 PUSH1 0x0 PUSH2 0xF1D JUMP JUMPDEST JUMP JUMPDEST PUSH1 0x0 DUP2 GT PUSH2 0x3FE JUMPI PUSH1 0x40 MLOAD PUSH32 0x8C379A000000000000000000000000000000000000000000000000000000000 DUP2 MSTORE PUSH1 0x4 ADD PUSH2 0x3F5 SWAP1 PUSH2 0x142B JUMP JUMPDEST PUSH1 0x40 MLOAD DUP1 SWAP2 SUB SWAP1 REVERT JUMPDEST PUSH1 0x0 PUSH2 0x40F DUP3 PUSH1 0x4 SLOAD PUSH1 0x3 SLOAD PUSH2 0xFE1 JUMP JUMPDEST SWAP1 POP PUSH1 0x0 DUP2 GT PUSH2 0x454 JUMPI PUSH1 0x40 MLOAD PUSH32 0x8C379A000000000000000000000000000000000000000000000000000000000 DUP2 MSTORE PUSH1 0x4 ADD PUSH2 0x44B SWAP1 PUSH2 0x1497 JUMP JUMPDEST PUSH1 0x40 MLOAD DUP1 SWAP2 SUB SWAP1 REVERT JUMPDEST DUP1 PUSH1 0x3 SLOAD LT ISZERO PUSH2 0x499 JUMPI PUSH1 0x40 MLOAD PUSH32 0x8C379A000000000000000000000000000000000000000000000000000000000 DUP2 MSTORE PUSH1 0x4 ADD PUSH2 0x490 SWAP1 PUSH2 0x1529 JUMP JUMPDEST PUSH1 0x40 MLOAD DUP1 SWAP2 SUB SWAP1 REVERT JUMPDEST DUP2 PUSH1 0x4 PUSH1 0x0 DUP3 DUP3 SLOAD PUSH2 0x4AB SWAP2 SWAP1 PUSH2 0x1549 JUMP JUMPDEST SWAP3 POP POP DUP2 SWAP1 SSTORE POP DUP1 PUSH1 0x3 PUSH1 0x0 DUP3 DUP3 SLOAD PUSH2 0x4C4 SWAP2 SWAP1 PUSH2 0x157D JUMP JUMPDEST SWAP3 POP POP DUP2 SWAP1 SSTORE POP CALLER PUSH20 0xFFFFFFFFFFFFFFFFFFFFFFFFFFFFFFFFFFFFFFFF AND PUSH32 0x631FB37DBA9BBCB8B2F3BE2D669E365AE9F1BD850CC57DFE8B7CCD7D979A2BBA PUSH1 0x2 PUSH1 0x0 SWAP1 SLOAD SWAP1 PUSH2 0x100 EXP SWAP1 DIV PUSH20 0xFFFFFFFFFFFFFFFFFFFFFFFFFFFFFFFFFFFFFFFF AND DUP5 PUSH1 0x1 PUSH1 0x0 SWAP1 SLOAD SWAP1 PUSH2 0x100 EXP SWAP1 DIV PUSH20 0xFFFFFFFFFFFFFFFFFFFFFFFFFFFFFFFFFFFFFFFF AND DUP6 PUSH1 0x40 MLOAD PUSH2 0x55B SWAP5 SWAP4 SWAP3 SWAP2 SWAP1 PUSH2 0x15B1 JUMP JUMPDEST PUSH1 0x40 MLOAD DUP1 SWAP2 SUB SWAP1 LOG2 PUSH1 0x2 PUSH1 0x0 SWAP1 SLOAD SWAP1 PUSH2 0x100 EXP SWAP1 DIV PUSH20 0xFFFFFFFFFFFFFFFFFFFFFFFFFFFFFFFFFFFFFFFF AND PUSH20 0xFFFFFFFFFFFFFFFFFFFFFFFFFFFFFFFFFFFFFFFF AND PUSH4 0x23B872DD CALLER ADDRESS DUP6 PUSH1 0x40 MLOAD DUP5 PUSH4 0xFFFFFFFF AND PUSH1 0xE0 SHL DUP2 MSTORE PUSH1 0x4 ADD PUSH2 0x5C2 SWAP4 SWAP3 SWAP2 SWAP1 PUSH2 0x15F6 JUMP JUMPDEST PUSH1 0x20 PUSH1 0x40 MLOAD DUP1 DUP4 SUB DUP2 PUSH1 0x0 DUP8 GAS CALL ISZERO DUP1 ISZERO PUSH2 0x5E1 JUMPI RETURNDATASIZE PUSH1 0x0 DUP1 RETURNDATACOPY RETURNDATASIZE PUSH1 0x0 REVERT JUMPDEST POP POP POP POP PUSH1 0x40 MLOAD RETURNDATASIZE PUSH1 0x1F NOT PUSH1 0x1F DUP3 ADD AND DUP3 ADD DUP1 PUSH1 0x40 MSTORE POP DUP2 ADD SWAP1 PUSH2 0x605 SWAP2 SWAP1 PUSH2 0x1665 JUMP JUMPDEST POP PUSH1 0x1 PUSH1 0x0 SWAP1 SLOAD SWAP1 PUSH2 0x100 EXP SWAP1 DIV PUSH20 0xFFFFFFFFFFFFFFFFFFFFFFFFFFFFFFFFFFFFFFFF AND PUSH20 0xFFFFFFFFFFFFFFFFFFFFFFFFFFFFFFFFFFFFFFFF AND PUSH4 0xA9059CBB CALLER DUP4 PUSH1 0x40 MLOAD DUP4 PUSH4 0xFFFFFFFF AND PUSH1 0xE0 SHL DUP2 MSTORE PUSH1 0x4 ADD PUSH2 0x663 SWAP3 SWAP2 SWAP1 PUSH2 0x1692 JUMP JUMPDEST PUSH1 0x20 PUSH1 0x40 MLOAD DUP1 DUP4 SUB DUP2 PUSH1 0x0 DUP8 GAS CALL ISZERO DUP1 ISZERO PUSH2 0x682 JUMPI RETURNDATASIZE PUSH1 0x0 DUP1 RETURNDATACOPY RETURNDATASIZE PUSH1 0x0 REVERT JUMPDEST POP POP POP POP PUSH1 0x40 MLOAD RETURNDATASIZE PUSH1 0x1F NOT PUSH1 0x1F DUP3 ADD AND DUP3 ADD DUP1 PUSH1 0x40 MSTORE POP DUP2 ADD SWAP1 PUSH2 0x6A6 SWAP2 SWAP1 PUSH2 0x1665 JUMP JUMPDEST POP POP POP JUMP JUMPDEST PUSH1 0x0 DUP1 PUSH1 0x0 SWAP1 SLOAD SWAP1 PUSH2 0x100 EXP SWAP1 DIV PUSH20 0xFFFFFFFFFFFFFFFFFFFFFFFFFFFFFFFFFFFFFFFF AND SWAP1 POP SWAP1 JUMP JUMPDEST PUSH2 0x6DC PUSH2 0xE96 JUMP JUMPDEST PUSH1 0x0 DUP3 GT DUP1 ISZERO PUSH2 0x6EC JUMPI POP PUSH1 0x0 DUP2 GT JUMPDEST PUSH2 0x72B JUMPI PUSH1 0x40 MLOAD PUSH32 0x8C379A000000000000000000000000000000000000000000000000000000000 DUP2 MSTORE PUSH1 0x4 ADD PUSH2 0x722 SWAP1 PUSH2 0x1707 JUMP JUMPDEST PUSH1 0x40 MLOAD DUP1 SWAP2 SUB SWAP1 REVERT JUMPDEST PUSH1 0x1 PUSH1 0x0 SWAP1 SLOAD SWAP1 PUSH2 0x100 EXP SWAP1 DIV PUSH20 0xFFFFFFFFFFFFFFFFFFFFFFFFFFFFFFFFFFFFFFFF AND PUSH20 0xFFFFFFFFFFFFFFFFFFFFFFFFFFFFFFFFFFFFFFFF AND PUSH4 0x23B872DD CALLER ADDRESS DUP6 PUSH1 0x40 MLOAD DUP5 PUSH4 0xFFFFFFFF AND PUSH1 0xE0 SHL DUP2 MSTORE PUSH1 0x4 ADD PUSH2 0x78A SWAP4 SWAP3 SWAP2 SWAP1 PUSH2 0x15F6 JUMP JUMPDEST PUSH1 0x20 PUSH1 0x40 MLOAD DUP1 DUP4 SUB DUP2 PUSH1 0x0 DUP8 GAS CALL ISZERO DUP1 ISZERO PUSH2 0x7A9 JUMPI RETURNDATASIZE PUSH1 0x0 DUP1 RETURNDATACOPY RETURNDATASIZE PUSH1 0x0 REVERT JUMPDEST POP POP POP POP PUSH1 0x40 MLOAD RETURNDATASIZE PUSH1 0x1F NOT PUSH1 0x1F DUP3 ADD AND DUP3 ADD DUP1 PUSH1 0x40 MSTORE POP DUP2 ADD SWAP1 PUSH2 0x7CD SWAP2 SWAP1 PUSH2 0x1665 JUMP JUMPDEST POP PUSH1 0x2 PUSH1 0x0 SWAP1 SLOAD SWAP1 PUSH2 0x100 EXP SWAP1 DIV PUSH20 0xFFFFFFFFFFFFFFFFFFFFFFFFFFFFFFFFFFFFFFFF AND PUSH20 0xFFFFFFFFFFFFFFFFFFFFFFFFFFFFFFFFFFFFFFFF AND PUSH4 0x23B872DD CALLER ADDRESS DUP5 PUSH1 0x40 MLOAD DUP5 PUSH4 0xFFFFFFFF AND PUSH1 0xE0 SHL DUP2 MSTORE PUSH1 0x4 ADD PUSH2 0x82D SWAP4 SWAP3 SWAP2 SWAP1 PUSH2 0x15F6 JUMP JUMPDEST PUSH1 0x20 PUSH1 0x40 MLOAD DUP1 DUP4 SUB DUP2 PUSH1 0x0 DUP8 GAS CALL ISZERO DUP1 ISZERO PUSH2 0x84C JUMPI RETURNDATASIZE PUSH1 0x0 DUP1 RETURNDATACOPY RETURNDATASIZE PUSH1 0x0 REVERT JUMPDEST POP POP POP POP PUSH1 0x40 MLOAD RETURNDATASIZE PUSH1 0x1F NOT PUSH1 0x1F DUP3 ADD AND DUP3 ADD DUP1 PUSH1 0x40 MSTORE POP DUP2 ADD SWAP1 PUSH2 0x870 SWAP2 SWAP1 PUSH2 0x1665 JUMP JUMPDEST POP DUP2 PUSH1 0x3 PUSH1 0x0 DUP3 DUP3 SLOAD PUSH2 0x883 SWAP2 SWAP1 PUSH2 0x1549 JUMP JUMPDEST SWAP3 POP POP DUP2 SWAP1 SSTORE POP DUP1 PUSH1 0x4 PUSH1 0x0 DUP3 DUP3 SLOAD PUSH2 0x89C SWAP2 SWAP1 PUSH2 0x1549 JUMP JUMPDEST SWAP3 POP POP DUP2 SWAP1 SSTORE POP CALLER PUSH20 0xFFFFFFFFFFFFFFFFFFFFFFFFFFFFFFFFFFFFFFFF AND PUSH32 0xAC1D76749E5447B7B16F5AB61447E1BD502F3BB4807AF3B28E620D1700A6EE45 DUP4 DUP4 PUSH1 0x40 MLOAD PUSH2 0x8EB SWAP3 SWAP2 SWAP1 PUSH2 0x1727 JUMP JUMPDEST PUSH1 0x40 MLOAD DUP1 SWAP2 SUB SWAP1 LOG2 POP POP JUMP JUMPDEST PUSH2 0x8FF PUSH2 0xE96 JUMP JUMPDEST PUSH1 0x3 SLOAD DUP3 GT ISZERO DUP1 ISZERO PUSH2 0x913 JUMPI POP PUSH1 0x4 SLOAD DUP2 GT ISZERO JUMPDEST PUSH2 0x952 JUMPI PUSH1 0x40 MLOAD PUSH32 0x8C379A000000000000000000000000000000000000000000000000000000000 DUP2 MSTORE PUSH1 0x4 ADD PUSH2 0x949 SWAP1 PUSH2 0x179C JUMP JUMPDEST PUSH1 0x40 MLOAD DUP1 SWAP2 SUB SWAP1 REVERT JUMPDEST DUP2 PUSH1 0x3 PUSH1 0x0 DUP3 DUP3 SLOAD PUSH2 0x964 SWAP2 SWAP1 PUSH2 0x157D JUMP JUMPDEST SWAP3 POP POP DUP2 SWAP1 SSTORE POP DUP1 PUSH1 0x4 PUSH1 0x0 DUP3 DUP3 SLOAD PUSH2 0x97D SWAP2 SWAP1 PUSH2 0x157D JUMP JUMPDEST SWAP3 POP POP DUP2 SWAP1 SSTORE POP CALLER PUSH20 0xFFFFFFFFFFFFFFFFFFFFFFFFFFFFFFFFFFFFFFFF AND PUSH32 0x96CD817C6329656790EF8FBA7675405193677D39619571282F5E21F3A98CD059 DUP4 DUP4 PUSH1 0x40 MLOAD PUSH2 0x9CC SWAP3 SWAP2 SWAP1 PUSH2 0x1727 JUMP JUMPDEST PUSH1 0x40 MLOAD DUP1 SWAP2 SUB SWAP1 LOG2 PUSH1 0x1 PUSH1 0x0 SWAP1 SLOAD SWAP1 PUSH2 0x100 EXP SWAP1 DIV PUSH20 0xFFFFFFFFFFFFFFFFFFFFFFFFFFFFFFFFFFFFFFFF AND PUSH20 0xFFFFFFFFFFFFFFFFFFFFFFFFFFFFFFFFFFFFFFFF AND PUSH4 0xA9059CBB CALLER DUP5 PUSH1 0x40 MLOAD DUP4 PUSH4 0xFFFFFFFF AND PUSH1 0xE0 SHL DUP2 MSTORE PUSH1 0x4 ADD PUSH2 0xA31 SWAP3 SWAP2 SWAP1 PUSH2 0x1692 JUMP JUMPDEST PUSH1 0x20 PUSH1 0x40 MLOAD DUP1 DUP4 SUB DUP2 PUSH1 0x0 DUP8 GAS CALL ISZERO DUP1 ISZERO PUSH2 0xA50 JUMPI RETURNDATASIZE PUSH1 0x0 DUP1 RETURNDATACOPY RETURNDATASIZE PUSH1 0x0 REVERT JUMPDEST POP POP POP POP PUSH1 0x40 MLOAD RETURNDATASIZE PUSH1 0x1F NOT PUSH1 0x1F DUP3 ADD AND DUP3 ADD DUP1 PUSH1 0x40 MSTORE POP DUP2 ADD SWAP1 PUSH2 0xA74 SWAP2 SWAP1 PUSH2 0x1665 JUMP JUMPDEST POP PUSH1 0x2 PUSH1 0x0 SWAP1 SLOAD SWAP1 PUSH2 0x100 EXP SWAP1 DIV PUSH20 0xFFFFFFFFFFFFFFFFFFFFFFFFFFFFFFFFFFFFFFFF AND PUSH20 0xFFFFFFFFFFFFFFFFFFFFFFFFFFFFFFFFFFFFFFFF AND PUSH4 0xA9059CBB CALLER DUP4 PUSH1 0x40 MLOAD DUP4 PUSH4 0xFFFFFFFF AND PUSH1 0xE0 SHL DUP2 MSTORE PUSH1 0x4 ADD PUSH2 0xAD2 SWAP3 SWAP2 SWAP1 PUSH2 0x1692 JUMP JUMPDEST PUSH1 0x20 PUSH1 0x40 MLOAD DUP1 DUP4 SUB DUP2 PUSH1 0x0 DUP8 GAS CALL ISZERO DUP1 ISZERO PUSH2 0xAF1 JUMPI RETURNDATASIZE PUSH1 0x0 DUP1 RETURNDATACOPY RETURNDATASIZE PUSH1 0x0 REVERT JUMPDEST POP POP POP POP PUSH1 0x40 MLOAD RETURNDATASIZE PUSH1 0x1F NOT PUSH1 0x1F DUP3 ADD AND DUP3 ADD DUP1 PUSH1 0x40 MSTORE POP DUP2 ADD SWAP1 PUSH2 0xB15 SWAP2 SWAP1 PUSH2 0x1665 JUMP JUMPDEST POP POP POP JUMP JUMPDEST PUSH1 0x3 SLOAD DUP2 JUMP JUMPDEST PUSH1 0x0 DUP2 GT PUSH2 0xB63 JUMPI PUSH1 0x40 MLOAD PUSH32 0x8C379A000000000000000000000000000000000000000000000000000000000 DUP2 MSTORE PUSH1 0x4 ADD PUSH2 0xB5A SWAP1 PUSH2 0x142B JUMP JUMPDEST PUSH1 0x40 MLOAD DUP1 SWAP2 SUB SWAP1 REVERT JUMPDEST PUSH1 0x0 PUSH2 0xB74 DUP3 PUSH1 0x3 SLOAD PUSH1 0x4 SLOAD PUSH2 0xFE1 JUMP JUMPDEST SWAP1 POP PUSH1 0x0 DUP2 GT PUSH2 0xBB9 JUMPI PUSH1 0x40 MLOAD PUSH32 0x8C379A000000000000000000000000000000000000000000000000000000000 DUP2 MSTORE PUSH1 0x4 ADD PUSH2 0xBB0 SWAP1 PUSH2 0x1497 JUMP JUMPDEST PUSH1 0x40 MLOAD DUP1 SWAP2 SUB SWAP1 REVERT JUMPDEST DUP1 PUSH1 0x4 SLOAD LT ISZERO PUSH2 0xBFE JUMPI PUSH1 0x40 MLOAD PUSH32 0x8C379A000000000000000000000000000000000000000000000000000000000 DUP2 MSTORE PUSH1 0x4 ADD PUSH2 0xBF5 SWAP1 PUSH2 0x182E JUMP JUMPDEST PUSH1 0x40 MLOAD DUP1 SWAP2 SUB SWAP1 REVERT JUMPDEST DUP2 PUSH1 0x3 PUSH1 0x0 DUP3 DUP3 SLOAD PUSH2 0xC10 SWAP2 SWAP1 PUSH2 0x1549 JUMP JUMPDEST SWAP3 POP POP DUP2 SWAP1 SSTORE POP DUP1 PUSH1 0x4 PUSH1 0x0 DUP3 DUP3 SLOAD PUSH2 0xC29 SWAP2 SWAP1 PUSH2 0x157D JUMP JUMPDEST SWAP3 POP POP DUP2 SWAP1 SSTORE POP CALLER PUSH20 0xFFFFFFFFFFFFFFFFFFFFFFFFFFFFFFFFFFFFFFFF AND PUSH32 0x631FB37DBA9BBCB8B2F3BE2D669E365AE9F1BD850CC57DFE8B7CCD7D979A2BBA PUSH1 0x1 PUSH1 0x0 SWAP1 SLOAD SWAP1 PUSH2 0x100 EXP SWAP1 DIV PUSH20 0xFFFFFFFFFFFFFFFFFFFFFFFFFFFFFFFFFFFFFFFF AND DUP5 PUSH1 0x2 PUSH1 0x0 SWAP1 SLOAD SWAP1 PUSH2 0x100 EXP SWAP1 DIV PUSH20 0xFFFFFFFFFFFFFFFFFFFFFFFFFFFFFFFFFFFFFFFF AND DUP6 PUSH1 0x40 MLOAD PUSH2 0xCC0 SWAP5 SWAP4 SWAP3 SWAP2 SWAP1 PUSH2 0x15B1 JUMP JUMPDEST PUSH1 0x40 MLOAD DUP1 SWAP2 SUB SWAP1 LOG2 PUSH1 0x1 PUSH1 0x0 SWAP1 SLOAD SWAP1 PUSH2 0x100 EXP SWAP1 DIV PUSH20 0xFFFFFFFFFFFFFFFFFFFFFFFFFFFFFFFFFFFFFFFF AND PUSH20 0xFFFFFFFFFFFFFFFFFFFFFFFFFFFFFFFFFFFFFFFF AND PUSH4 0x23B872DD CALLER ADDRESS DUP6 PUSH1 0x40 MLOAD DUP5 PUSH4 0xFFFFFFFF AND PUSH1 0xE0 SHL DUP2 MSTORE PUSH1 0x4 ADD PUSH2 0xD27 SWAP4 SWAP3 SWAP2 SWAP1 PUSH2 0x15F6 JUMP JUMPDEST PUSH1 0x20 PUSH1 0x40 MLOAD DUP1 DUP4 SUB DUP2 PUSH1 0x0 DUP8 GAS CALL ISZERO DUP1 ISZERO PUSH2 0xD46 JUMPI RETURNDATASIZE PUSH1 0x0 DUP1 RETURNDATACOPY RETURNDATASIZE PUSH1 0x0 REVERT JUMPDEST POP POP POP POP PUSH1 0x40 MLOAD RETURNDATASIZE PUSH1 0x1F NOT PUSH1 0x1F DUP3 ADD AND DUP3 ADD DUP1 PUSH1 0x40 MSTORE POP DUP2 ADD SWAP1 PUSH2 0xD6A SWAP2 SWAP1 PUSH2 0x1665 JUMP JUMPDEST POP PUSH1 0x2 PUSH1 0x0 SWAP1 SLOAD SWAP1 PUSH2 0x100 EXP SWAP1 DIV PUSH20 0xFFFFFFFFFFFFFFFFFFFFFFFFFFFFFFFFFFFFFFFF AND PUSH20 0xFFFFFFFFFFFFFFFFFFFFFFFFFFFFFFFFFFFFFFFF AND PUSH4 0xA9059CBB CALLER DUP4 PUSH1 0x40 MLOAD DUP4 PUSH4 0xFFFFFFFF AND PUSH1 0xE0 SHL DUP2 MSTORE PUSH1 0x4 ADD PUSH2 0xDC8 SWAP3 SWAP2 SWAP1 PUSH2 0x1692 JUMP JUMPDEST PUSH1 0x20 PUSH1 0x40 MLOAD DUP1 DUP4 SUB DUP2 PUSH1 0x0 DUP8 GAS CALL ISZERO DUP1 ISZERO PUSH2 0xDE7 JUMPI RETURNDATASIZE PUSH1 0x0 DUP1 RETURNDATACOPY RETURNDATASIZE PUSH1 0x0 REVERT JUMPDEST POP POP POP POP PUSH1 0x40 MLOAD RETURNDATASIZE PUSH1 0x1F NOT PUSH1 0x1F DUP3 ADD AND DUP3 ADD DUP1 PUSH1 0x40 MSTORE POP DUP2 ADD SWAP1 PUSH2 0xE0B SWAP2 SWAP1 PUSH2 0x1665 JUMP JUMPDEST POP POP POP JUMP JUMPDEST PUSH2 0xE18 PUSH2 0xE96 JUMP JUMPDEST PUSH1 0x0 PUSH20 0xFFFFFFFFFFFFFFFFFFFFFFFFFFFFFFFFFFFFFFFF AND DUP2 PUSH20 0xFFFFFFFFFFFFFFFFFFFFFFFFFFFFFFFFFFFFFFFF AND SUB PUSH2 0xE8A JUMPI PUSH1 0x0 PUSH1 0x40 MLOAD PUSH32 0x1E4FBDF700000000000000000000000000000000000000000000000000000000 DUP2 MSTORE PUSH1 0x4 ADD PUSH2 0xE81 SWAP2 SWAP1 PUSH2 0x1236 JUMP JUMPDEST PUSH1 0x40 MLOAD DUP1 SWAP2 SUB SWAP1 REVERT JUMPDEST PUSH2 0xE93 DUP2 PUSH2 0xF1D JUMP JUMPDEST POP JUMP JUMPDEST PUSH2 0xE9E PUSH2 0x1088 JUMP JUMPDEST PUSH20 0xFFFFFFFFFFFFFFFFFFFFFFFFFFFFFFFFFFFFFFFF AND PUSH2 0xEBC PUSH2 0x6AB JUMP JUMPDEST PUSH20 0xFFFFFFFFFFFFFFFFFFFFFFFFFFFFFFFFFFFFFFFF AND EQ PUSH2 0xF1B JUMPI PUSH2 0xEDF PUSH2 0x1088 JUMP JUMPDEST PUSH1 0x40 MLOAD PUSH32 0x118CDAA700000000000000000000000000000000000000000000000000000000 DUP2 MSTORE PUSH1 0x4 ADD PUSH2 0xF12 SWAP2 SWAP1 PUSH2 0x1236 JUMP JUMPDEST PUSH1 0x40 MLOAD DUP1 SWAP2 SUB SWAP1 REVERT JUMPDEST JUMP JUMPDEST PUSH1 0x0 DUP1 PUSH1 0x0 SWAP1 SLOAD SWAP1 PUSH2 0x100 EXP SWAP1 DIV PUSH20 0xFFFFFFFFFFFFFFFFFFFFFFFFFFFFFFFFFFFFFFFF AND SWAP1 POP DUP2 PUSH1 0x0 DUP1 PUSH2 0x100 EXP DUP2 SLOAD DUP2 PUSH20 0xFFFFFFFFFFFFFFFFFFFFFFFFFFFFFFFFFFFFFFFF MUL NOT AND SWAP1 DUP4 PUSH20 0xFFFFFFFFFFFFFFFFFFFFFFFFFFFFFFFFFFFFFFFF AND MUL OR SWAP1 SSTORE POP DUP2 PUSH20 0xFFFFFFFFFFFFFFFFFFFFFFFFFFFFFFFFFFFFFFFF AND DUP2 PUSH20 0xFFFFFFFFFFFFFFFFFFFFFFFFFFFFFFFFFFFFFFFF AND PUSH32 0x8BE0079C531659141344CD1FD0A4F28419497F9722A3DAAFE3B4186F6B6457E0 PUSH1 0x40 MLOAD PUSH1 0x40 MLOAD DUP1 SWAP2 SUB SWAP1 LOG3 POP POP JUMP JUMPDEST PUSH1 0x0 DUP1 DUP4 GT DUP1 ISZERO PUSH2 0xFF2 JUMPI POP PUSH1 0x0 DUP3 GT JUMPDEST PUSH2 0x1031 JUMPI PUSH1 0x40 MLOAD PUSH32 0x8C379A000000000000000000000000000000000000000000000000000000000 DUP2 MSTORE PUSH1 0x4 ADD PUSH2 0x1028 SWAP1 PUSH2 0x189A JUMP JUMPDEST PUSH1 0x40 MLOAD DUP1 SWAP2 SUB SWAP1 REVERT JUMPDEST PUSH1 0x0 PUSH2 0x3E5 DUP6 PUSH2 0x1041 SWAP2 SWAP1 PUSH2 0x12C0 JUMP JUMPDEST SWAP1 POP PUSH1 0x0 DUP4 DUP3 PUSH2 0x1051 SWAP2 SWAP1 PUSH2 0x12C0 JUMP JUMPDEST SWAP1 POP PUSH1 0x0 DUP3 PUSH2 0x3E8 DUP8 PUSH2 0x1064 SWAP2 SWAP1 PUSH2 0x12C0 JUMP JUMPDEST PUSH2 0x106E SWAP2 SWAP1 PUSH2 0x1549 JUMP JUMPDEST SWAP1 POP DUP1 DUP3 PUSH2 0x107C SWAP2 SWAP1 PUSH2 0x1331 JUMP JUMPDEST SWAP4 POP POP POP POP SWAP4 SWAP3 POP POP POP JUMP JUMPDEST PUSH1 0x0 CALLER SWAP1 POP SWAP1 JUMP JUMPDEST PUSH1 0x0 PUSH20 0xFFFFFFFFFFFFFFFFFFFFFFFFFFFFFFFFFFFFFFFF DUP3 AND SWAP1 POP SWAP2 SWAP1 POP JUMP JUMPDEST PUSH1 0x0 DUP2 SWAP1 POP SWAP2 SWAP1 POP JUMP JUMPDEST PUSH1 0x0 PUSH2 0x10D5 PUSH2 0x10D0 PUSH2 0x10CB DUP5 PUSH2 0x1090 JUMP JUMPDEST PUSH2 0x10B0 JUMP JUMPDEST PUSH2 0x1090 JUMP JUMPDEST SWAP1 POP SWAP2 SWAP1 POP JUMP JUMPDEST PUSH1 0x0 PUSH2 0x10E7 DUP3 PUSH2 0x10BA JUMP JUMPDEST SWAP1 POP SWAP2 SWAP1 POP JUMP JUMPDEST PUSH1 0x0 PUSH2 0x10F9 DUP3 PUSH2 0x10DC JUMP JUMPDEST SWAP1 POP SWAP2 SWAP1 POP JUMP JUMPDEST PUSH2 0x1109 DUP2 PUSH2 0x10EE JUMP JUMPDEST DUP3 MSTORE POP POP JUMP JUMPDEST PUSH1 0x0 PUSH1 0x20 DUP3 ADD SWAP1 POP PUSH2 0x1124 PUSH1 0x0 DUP4 ADD DUP5 PUSH2 0x1100 JUMP JUMPDEST SWAP3 SWAP2 POP POP JUMP JUMPDEST PUSH1 0x0 DUP2 SWAP1 POP SWAP2 SWAP1 POP JUMP JUMPDEST PUSH2 0x113D DUP2 PUSH2 0x112A JUMP JUMPDEST DUP3 MSTORE POP POP JUMP JUMPDEST PUSH1 0x0 PUSH1 0x20 DUP3 ADD SWAP1 POP PUSH2 0x1158 PUSH1 0x0 DUP4 ADD DUP5 PUSH2 0x1134 JUMP JUMPDEST SWAP3 SWAP2 POP POP JUMP JUMPDEST PUSH1 0x0 DUP1 REVERT JUMPDEST PUSH1 0x0 PUSH2 0x116E DUP3 PUSH2 0x1090 JUMP JUMPDEST SWAP1 POP SWAP2 SWAP1 POP JUMP JUMPDEST PUSH2 0x117E DUP2 PUSH2 0x1163 JUMP JUMPDEST DUP2 EQ PUSH2 0x1189 JUMPI PUSH1 0x0 DUP1 REVERT JUMPDEST POP JUMP JUMPDEST PUSH1 0x0 DUP2 CALLDATALOAD SWAP1 POP PUSH2 0x119B DUP2 PUSH2 0x1175 JUMP JUMPDEST SWAP3 SWAP2 POP POP JUMP JUMPDEST PUSH1 0x0 PUSH1 0x20 DUP3 DUP5 SUB SLT ISZERO PUSH2 0x11B7 JUMPI PUSH2 0x11B6 PUSH2 0x115E JUMP JUMPDEST JUMPDEST PUSH1 0x0 PUSH2 0x11C5 DUP5 DUP3 DUP6 ADD PUSH2 0x118C JUMP JUMPDEST SWAP2 POP POP SWAP3 SWAP2 POP POP JUMP JUMPDEST PUSH2 0x11D7 DUP2 PUSH2 0x112A JUMP JUMPDEST DUP2 EQ PUSH2 0x11E2 JUMPI PUSH1 0x0 DUP1 REVERT JUMPDEST POP JUMP JUMPDEST PUSH1 0x0 DUP2 CALLDATALOAD SWAP1 POP PUSH2 0x11F4 DUP2 PUSH2 0x11CE JUMP JUMPDEST SWAP3 SWAP2 POP POP JUMP JUMPDEST PUSH1 0x0 PUSH1 0x20 DUP3 DUP5 SUB SLT ISZERO PUSH2 0x1210 JUMPI PUSH2 0x120F PUSH2 0x115E JUMP JUMPDEST JUMPDEST PUSH1 0x0 PUSH2 0x121E DUP5 DUP3 DUP6 ADD PUSH2 0x11E5 JUMP JUMPDEST SWAP2 POP POP SWAP3 SWAP2 POP POP JUMP JUMPDEST PUSH2 0x1230 DUP2 PUSH2 0x1163 JUMP JUMPDEST DUP3 MSTORE POP POP JUMP JUMPDEST PUSH1 0x0 PUSH1 0x20 DUP3 ADD SWAP1 POP PUSH2 0x124B PUSH1 0x0 DUP4 ADD DUP5 PUSH2 0x1227 JUMP JUMPDEST SWAP3 SWAP2 POP POP JUMP JUMPDEST PUSH1 0x0 DUP1 PUSH1 0x40 DUP4 DUP6 SUB SLT ISZERO PUSH2 0x1268 JUMPI PUSH2 0x1267 PUSH2 0x115E JUMP JUMPDEST JUMPDEST PUSH1 0x0 PUSH2 0x1276 DUP6 DUP3 DUP7 ADD PUSH2 0x11E5 JUMP JUMPDEST SWAP3 POP POP PUSH1 0x20 PUSH2 0x1287 DUP6 DUP3 DUP7 ADD PUSH2 0x11E5 JUMP JUMPDEST SWAP2 POP POP SWAP3 POP SWAP3 SWAP1 POP JUMP JUMPDEST PUSH32 0x4E487B7100000000000000000000000000000000000000000000000000000000 PUSH1 0x0 MSTORE PUSH1 0x11 PUSH1 0x4 MSTORE PUSH1 0x24 PUSH1 0x0 REVERT JUMPDEST PUSH1 0x0 PUSH2 0x12CB DUP3 PUSH2 0x112A JUMP JUMPDEST SWAP2 POP PUSH2 0x12D6 DUP4 PUSH2 0x112A JUMP JUMPDEST SWAP3 POP DUP3 DUP3 MUL PUSH2 0x12E4 DUP2 PUSH2 0x112A JUMP JUMPDEST SWAP2 POP DUP3 DUP3 DIV DUP5 EQ DUP4 ISZERO OR PUSH2 0x12FB JUMPI PUSH2 0x12FA PUSH2 0x1291 JUMP JUMPDEST JUMPDEST POP SWAP3 SWAP2 POP POP JUMP JUMPDEST PUSH32 0x4E487B7100000000000000000000000000000000000000000000000000000000 PUSH1 0x0 MSTORE PUSH1 0x12 PUSH1 0x4 MSTORE PUSH1 0x24 PUSH1 0x0 REVERT JUMPDEST PUSH1 0x0 PUSH2 0x133C DUP3 PUSH2 0x112A JUMP JUMPDEST SWAP2 POP PUSH2 0x1347 DUP4 PUSH2 0x112A JUMP JUMPDEST SWAP3 POP DUP3 PUSH2 0x1357 JUMPI PUSH2 0x1356 PUSH2 0x1302 JUMP JUMPDEST JUMPDEST DUP3 DUP3 DIV SWAP1 POP SWAP3 SWAP2 POP POP JUMP JUMPDEST PUSH1 0x0 DUP3 DUP3 MSTORE PUSH1 0x20 DUP3 ADD SWAP1 POP SWAP3 SWAP2 POP POP JUMP JUMPDEST PUSH32 0x496E76616C696420746F6B656E20616464726573730000000000000000000000 PUSH1 0x0 DUP3 ADD MSTORE POP JUMP JUMPDEST PUSH1 0x0 PUSH2 0x13A9 PUSH1 0x15 DUP4 PUSH2 0x1362 JUMP JUMPDEST SWAP2 POP PUSH2 0x13B4 DUP3 PUSH2 0x1373 JUMP JUMPDEST PUSH1 0x20 DUP3 ADD SWAP1 POP SWAP2 SWAP1 POP JUMP JUMPDEST PUSH1 0x0 PUSH1 0x20 DUP3 ADD SWAP1 POP DUP2 DUP2 SUB PUSH1 0x0 DUP4 ADD MSTORE PUSH2 0x13D8 DUP2 PUSH2 0x139C JUMP JUMPDEST SWAP1 POP SWAP2 SWAP1 POP JUMP JUMPDEST PUSH32 0x416D6F756E74206D7573742062652067726561746572207468616E2030000000 PUSH1 0x0 DUP3 ADD MSTORE POP JUMP JUMPDEST PUSH1 0x0 PUSH2 0x1415 PUSH1 0x1D DUP4 PUSH2 0x1362 JUMP JUMPDEST SWAP2 POP PUSH2 0x1420 DUP3 PUSH2 0x13DF JUMP JUMPDEST PUSH1 0x20 DUP3 ADD SWAP1 POP SWAP2 SWAP1 POP JUMP JUMPDEST PUSH1 0x0 PUSH1 0x20 DUP3 ADD SWAP1 POP DUP2 DUP2 SUB PUSH1 0x0 DUP4 ADD MSTORE PUSH2 0x1444 DUP2 PUSH2 0x1408 JUMP JUMPDEST SWAP1 POP SWAP2 SWAP1 POP JUMP JUMPDEST PUSH32 0x496E73756666696369656E74206F757470757420616D6F756E74000000000000 PUSH1 0x0 DUP3 ADD MSTORE POP JUMP JUMPDEST PUSH1 0x0 PUSH2 0x1481 PUSH1 0x1A DUP4 PUSH2 0x1362 JUMP JUMPDEST SWAP2 POP PUSH2 0x148C DUP3 PUSH2 0x144B JUMP JUMPDEST PUSH1 0x20 DUP3 ADD SWAP1 POP SWAP2 SWAP1 POP JUMP JUMPDEST PUSH1 0x0 PUSH1 0x20 DUP3 ADD SWAP1 POP DUP2 DUP2 SUB PUSH1 0x0 DUP4 ADD MSTORE PUSH2 0x14B0 DUP2 PUSH2 0x1474 JUMP JUMPDEST SWAP1 POP SWAP2 SWAP1 POP JUMP JUMPDEST PUSH32 0x496E73756666696369656E74206C697175696469747920666F7220546F6B656E PUSH1 0x0 DUP3 ADD MSTORE PUSH32 0x4100000000000000000000000000000000000000000000000000000000000000 PUSH1 0x20 DUP3 ADD MSTORE POP JUMP JUMPDEST PUSH1 0x0 PUSH2 0x1513 PUSH1 0x21 DUP4 PUSH2 0x1362 JUMP JUMPDEST SWAP2 POP PUSH2 0x151E DUP3 PUSH2 0x14B7 JUMP JUMPDEST PUSH1 0x40 DUP3 ADD SWAP1 POP SWAP2 SWAP1 POP JUMP JUMPDEST PUSH1 0x0 PUSH1 0x20 DUP3 ADD SWAP1 POP DUP2 DUP2 SUB PUSH1 0x0 DUP4 ADD MSTORE PUSH2 0x1542 DUP2 PUSH2 0x1506 JUMP JUMPDEST SWAP1 POP SWAP2 SWAP1 POP JUMP JUMPDEST PUSH1 0x0 PUSH2 0x1554 DUP3 PUSH2 0x112A JUMP JUMPDEST SWAP2 POP PUSH2 0x155F DUP4 PUSH2 0x112A JUMP JUMPDEST SWAP3 POP DUP3 DUP3 ADD SWAP1 POP DUP1 DUP3 GT ISZERO PUSH2 0x1577 JUMPI PUSH2 0x1576 PUSH2 0x1291 JUMP JUMPDEST JUMPDEST SWAP3 SWAP2 POP POP JUMP JUMPDEST PUSH1 0x0 PUSH2 0x1588 DUP3 PUSH2 0x112A JUMP JUMPDEST SWAP2 POP PUSH2 0x1593 DUP4 PUSH2 0x112A JUMP JUMPDEST SWAP3 POP DUP3 DUP3 SUB SWAP1 POP DUP2 DUP2 GT ISZERO PUSH2 0x15AB JUMPI PUSH2 0x15AA PUSH2 0x1291 JUMP JUMPDEST JUMPDEST SWAP3 SWAP2 POP POP JUMP JUMPDEST PUSH1 0x0 PUSH1 0x80 DUP3 ADD SWAP1 POP PUSH2 0x15C6 PUSH1 0x0 DUP4 ADD DUP8 PUSH2 0x1227 JUMP JUMPDEST PUSH2 0x15D3 PUSH1 0x20 DUP4 ADD DUP7 PUSH2 0x1134 JUMP JUMPDEST PUSH2 0x15E0 PUSH1 0x40 DUP4 ADD DUP6 PUSH2 0x1227 JUMP JUMPDEST PUSH2 0x15ED PUSH1 0x60 DUP4 ADD DUP5 PUSH2 0x1134 JUMP JUMPDEST SWAP6 SWAP5 POP POP POP POP POP JUMP JUMPDEST PUSH1 0x0 PUSH1 0x60 DUP3 ADD SWAP1 POP PUSH2 0x160B PUSH1 0x0 DUP4 ADD DUP7 PUSH2 0x1227 JUMP JUMPDEST PUSH2 0x1618 PUSH1 0x20 DUP4 ADD DUP6 PUSH2 0x1227 JUMP JUMPDEST PUSH2 0x1625 PUSH1 0x40 DUP4 ADD DUP5 PUSH2 0x1134 JUMP JUMPDEST SWAP5 SWAP4 POP POP POP POP JUMP JUMPDEST PUSH1 0x0 DUP2 ISZERO ISZERO SWAP1 POP SWAP2 SWAP1 POP JUMP JUMPDEST PUSH2 0x1642 DUP2 PUSH2 0x162D JUMP JUMPDEST DUP2 EQ PUSH2 0x164D JUMPI PUSH1 0x0 DUP1 REVERT JUMPDEST POP JUMP JUMPDEST PUSH1 0x0 DUP2 MLOAD SWAP1 POP PUSH2 0x165F DUP2 PUSH2 0x1639 JUMP JUMPDEST SWAP3 SWAP2 POP POP JUMP JUMPDEST PUSH1 0x0 PUSH1 0x20 DUP3 DUP5 SUB SLT ISZERO PUSH2 0x167B JUMPI PUSH2 0x167A PUSH2 0x115E JUMP JUMPDEST JUMPDEST PUSH1 0x0 PUSH2 0x1689 DUP5 DUP3 DUP6 ADD PUSH2 0x1650 JUMP JUMPDEST SWAP2 POP POP SWAP3 SWAP2 POP POP JUMP JUMPDEST PUSH1 0x0 PUSH1 0x40 DUP3 ADD SWAP1 POP PUSH2 0x16A7 PUSH1 0x0 DUP4 ADD DUP6 PUSH2 0x1227 JUMP JUMPDEST PUSH2 0x16B4 PUSH1 0x20 DUP4 ADD DUP5 PUSH2 0x1134 JUMP JUMPDEST SWAP4 SWAP3 POP POP POP JUMP JUMPDEST PUSH32 0x416D6F756E7473206D7573742062652067726561746572207468616E20300000 PUSH1 0x0 DUP3 ADD MSTORE POP JUMP JUMPDEST PUSH1 0x0 PUSH2 0x16F1 PUSH1 0x1E DUP4 PUSH2 0x1362 JUMP JUMPDEST SWAP2 POP PUSH2 0x16FC DUP3 PUSH2 0x16BB JUMP JUMPDEST PUSH1 0x20 DUP3 ADD SWAP1 POP SWAP2 SWAP1 POP JUMP JUMPDEST PUSH1 0x0 PUSH1 0x20 DUP3 ADD SWAP1 POP DUP2 DUP2 SUB PUSH1 0x0 DUP4 ADD MSTORE PUSH2 0x1720 DUP2 PUSH2 0x16E4 JUMP JUMPDEST SWAP1 POP SWAP2 SWAP1 POP JUMP JUMPDEST PUSH1 0x0 PUSH1 0x40 DUP3 ADD SWAP1 POP PUSH2 0x173C PUSH1 0x0 DUP4 ADD DUP6 PUSH2 0x1134 JUMP JUMPDEST PUSH2 0x1749 PUSH1 0x20 DUP4 ADD DUP5 PUSH2 0x1134 JUMP JUMPDEST SWAP4 SWAP3 POP POP POP JUMP JUMPDEST PUSH32 0x4E6F7420656E6F756768206C6971756964697479000000000000000000000000 PUSH1 0x0 DUP3 ADD MSTORE POP JUMP JUMPDEST PUSH1 0x0 PUSH2 0x1786 PUSH1 0x14 DUP4 PUSH2 0x1362 JUMP JUMPDEST SWAP2 POP PUSH2 0x1791 DUP3 PUSH2 0x1750 JUMP JUMPDEST PUSH1 0x20 DUP3 ADD SWAP1 POP SWAP2 SWAP1 POP JUMP JUMPDEST PUSH1 0x0 PUSH1 0x20 DUP3 ADD SWAP1 POP DUP2 DUP2 SUB PUSH1 0x0 DUP4 ADD MSTORE PUSH2 0x17B5 DUP2 PUSH2 0x1779 JUMP JUMPDEST SWAP1 POP SWAP2 SWAP1 POP JUMP JUMPDEST PUSH32 0x496E73756666696369656E74206C697175696469747920666F7220546F6B656E PUSH1 0x0 DUP3 ADD MSTORE PUSH32 0x4200000000000000000000000000000000000000000000000000000000000000 PUSH1 0x20 DUP3 ADD MSTORE POP JUMP JUMPDEST PUSH1 0x0 PUSH2 0x1818 PUSH1 0x21 DUP4 PUSH2 0x1362 JUMP JUMPDEST SWAP2 POP PUSH2 0x1823 DUP3 PUSH2 0x17BC JUMP JUMPDEST PUSH1 0x40 DUP3 ADD SWAP1 POP SWAP2 SWAP1 POP JUMP JUMPDEST PUSH1 0x0 PUSH1 0x20 DUP3 ADD SWAP1 POP DUP2 DUP2 SUB PUSH1 0x0 DUP4 ADD MSTORE PUSH2 0x1847 DUP2 PUSH2 0x180B JUMP JUMPDEST SWAP1 POP SWAP2 SWAP1 POP JUMP JUMPDEST PUSH32 0x496E73756666696369656E74206C697175696469747900000000000000000000 PUSH1 0x0 DUP3 ADD MSTORE POP JUMP JUMPDEST PUSH1 0x0 PUSH2 0x1884 PUSH1 0x16 DUP4 PUSH2 0x1362 JUMP JUMPDEST SWAP2 POP PUSH2 0x188F DUP3 PUSH2 0x184E JUMP JUMPDEST PUSH1 0x20 DUP3 ADD SWAP1 POP SWAP2 SWAP1 POP JUMP JUMPDEST PUSH1 0x0 PUSH1 0x20 DUP3 ADD SWAP1 POP DUP2 DUP2 SUB PUSH1 0x0 DUP4 ADD MSTORE PUSH2 0x18B3 DUP2 PUSH2 0x1877 JUMP JUMPDEST SWAP1 POP SWAP2 SWAP1 POP JUMP INVALID LOG2 PUSH5 0x6970667358 0x22 SLT KECCAK256 0xB4 0xBB CODESIZE 0xBD 0xAF OR GAS 0xA7 ADDMOD EQ NUMBER JUMPDEST SHL SWAP4 POP CALLVALUE BLOCKHASH 0xD9 EQ CREATE2 0xAE SWAP1 STATICCALL STOP PUSH25 0x1508CEFB779D9C64736F6C634300081C003300000000000000 "
        },
        "methodIdentifiers": {
          "addLiquidity(uint256,uint256)": "9cd441da",
          "getPrice(address)": "41976e09",
          "owner()": "8da5cb5b",
          "removeLiquidity(uint256,uint256)": "9d7de6b3",
          "renounceOwnership()": "715018a6",
          "reserveA()": "dc5fa6c5",
          "reserveB()": "19e36f3b",
          "swapAforB(uint256)": "e4f1f70a",
          "swapBforA(uint256)": "8014a7aa",
          "tokenA()": "0fc63d10",
          "tokenB()": "5f64b55b",
          "transferOwnership(address)": "f2fde38b"
        }
      }
    }
  }
}