{
  "_format": "hh-sol-artifact-1",
  "contractName": "SimpleDEX",
  "sourceName": "contracts/SimpleDEX.sol",
  "abi": [
    {
      "inputs": [
        {
          "internalType": "address",
          "name": "_tokenA",
          "type": "address"
        },
        {
          "internalType": "address",
          "name": "_tokenB",
          "type": "address"
        }
      ],
      "stateMutability": "nonpayable",
      "type": "constructor"
    },
    {
      "inputs": [
        {
          "internalType": "address",
          "name": "owner",
          "type": "address"
        }
      ],
      "name": "OwnableInvalidOwner",
      "type": "error"
    },
    {
      "inputs": [
        {
          "internalType": "address",
          "name": "account",
          "type": "address"
        }
      ],
      "name": "OwnableUnauthorizedAccount",
      "type": "error"
    },
    {
      "anonymous": false,
      "inputs": [
        {
          "indexed": true,
          "internalType": "address",
          "name": "provider",
          "type": "address"
        },
        {
          "indexed": false,
          "internalType": "uint256",
          "name": "amountA",
          "type": "uint256"
        },
        {
          "indexed": false,
          "internalType": "uint256",
          "name": "amountB",
          "type": "uint256"
        }
      ],
      "name": "LiquidityAdded",
      "type": "event"
    },
    {
      "anonymous": false,
      "inputs": [
        {
          "indexed": true,
          "internalType": "address",
          "name": "provider",
          "type": "address"
        },
        {
          "indexed": false,
          "internalType": "uint256",
          "name": "amountA",
          "type": "uint256"
        },
        {
          "indexed": false,
          "internalType": "uint256",
          "name": "amountB",
          "type": "uint256"
        }
      ],
      "name": "LiquidityRemoved",
      "type": "event"
    },
    {
      "anonymous": false,
      "inputs": [
        {
          "indexed": true,
          "internalType": "address",
          "name": "previousOwner",
          "type": "address"
        },
        {
          "indexed": true,
          "internalType": "address",
          "name": "newOwner",
          "type": "address"
        }
      ],
      "name": "OwnershipTransferred",
      "type": "event"
    },
    {
      "anonymous": false,
      "inputs": [
        {
          "indexed": true,
          "internalType": "address",
          "name": "trader",
          "type": "address"
        },
        {
          "indexed": false,
          "internalType": "address",
          "name": "tokenIn",
          "type": "address"
        },
        {
          "indexed": false,
          "internalType": "uint256",
          "name": "amountIn",
          "type": "uint256"
        },
        {
          "indexed": false,
          "internalType": "address",
          "name": "tokenOut",
          "type": "address"
        },
        {
          "indexed": false,
          "internalType": "uint256",
          "name": "amountOut",
          "type": "uint256"
        }
      ],
      "name": "TokensSwapped",
      "type": "event"
    },
    {
      "inputs": [
        {
          "internalType": "uint256",
          "name": "amountA",
          "type": "uint256"
        },
        {
          "internalType": "uint256",
          "name": "amountB",
          "type": "uint256"
        }
      ],
      "name": "addLiquidity",
      "outputs": [],
      "stateMutability": "nonpayable",
      "type": "function"
    },
    {
      "inputs": [
        {
          "internalType": "address",
          "name": "_token",
          "type": "address"
        }
      ],
      "name": "getPrice",
      "outputs": [
        {
          "internalType": "uint256",
          "name": "",
          "type": "uint256"
        }
      ],
      "stateMutability": "view",
      "type": "function"
    },
    {
      "inputs": [],
      "name": "owner",
      "outputs": [
        {
          "internalType": "address",
          "name": "",
          "type": "address"
        }
      ],
      "stateMutability": "view",
      "type": "function"
    },
    {
      "inputs": [
        {
          "internalType": "uint256",
          "name": "amountA",
          "type": "uint256"
        },
        {
          "internalType": "uint256",
          "name": "amountB",
          "type": "uint256"
        }
      ],
      "name": "removeLiquidity",
      "outputs": [],
      "stateMutability": "nonpayable",
      "type": "function"
    },
    {
      "inputs": [],
      "name": "renounceOwnership",
      "outputs": [],
      "stateMutability": "nonpayable",
      "type": "function"
    },
    {
      "inputs": [],
      "name": "reserveA",
      "outputs": [
        {
          "internalType": "uint256",
          "name": "",
          "type": "uint256"
        }
      ],
      "stateMutability": "view",
      "type": "function"
    },
    {
      "inputs": [],
      "name": "reserveB",
      "outputs": [
        {
          "internalType": "uint256",
          "name": "",
          "type": "uint256"
        }
      ],
      "stateMutability": "view",
      "type": "function"
    },
    {
      "inputs": [
        {
          "internalType": "uint256",
          "name": "amountAIn",
          "type": "uint256"
        }
      ],
      "name": "swapAforB",
      "outputs": [],
      "stateMutability": "nonpayable",
      "type": "function"
    },
    {
      "inputs": [
        {
          "internalType": "uint256",
          "name": "amountBIn",
          "type": "uint256"
        }
      ],
      "name": "swapBforA",
      "outputs": [],
      "stateMutability": "nonpayable",
      "type": "function"
    },
    {
      "inputs": [],
      "name": "tokenA",
      "outputs": [
        {
          "internalType": "contract IERC20",
          "name": "",
          "type": "address"
        }
      ],
      "stateMutability": "view",
      "type": "function"
    },
    {
      "inputs": [],
      "name": "tokenB",
      "outputs": [
        {
          "internalType": "contract IERC20",
          "name": "",
          "type": "address"
        }
      ],
      "stateMutability": "view",
      "type": "function"
    },
    {
      "inputs": [
        {
          "internalType": "address",
          "name": "newOwner",
          "type": "address"
        }
      ],
      "name": "transferOwnership",
      "outputs": [],
      "stateMutability": "nonpayable",
      "type": "function"
    }
  ],
  "bytecode": "0x608060405234801561001057600080fd5b50604051611bce380380611bce83398181016040528101906100329190610265565b33600073ffffffffffffffffffffffffffffffffffffffff168173ffffffffffffffffffffffffffffffffffffffff16036100a55760006040517f1e4fbdf700000000000000000000000000000000000000000000000000000000815260040161009c91906102b4565b60405180910390fd5b6100b48161013e60201b60201c565b5081600160006101000a81548173ffffffffffffffffffffffffffffffffffffffff021916908373ffffffffffffffffffffffffffffffffffffffff16021790555080600260006101000a81548173ffffffffffffffffffffffffffffffffffffffff021916908373ffffffffffffffffffffffffffffffffffffffff16021790555050506102cf565b60008060009054906101000a900473ffffffffffffffffffffffffffffffffffffffff169050816000806101000a81548173ffffffffffffffffffffffffffffffffffffffff021916908373ffffffffffffffffffffffffffffffffffffffff1602179055508173ffffffffffffffffffffffffffffffffffffffff168173ffffffffffffffffffffffffffffffffffffffff167f8be0079c531659141344cd1fd0a4f28419497f9722a3daafe3b4186f6b6457e060405160405180910390a35050565b600080fd5b600073ffffffffffffffffffffffffffffffffffffffff82169050919050565b600061023282610207565b9050919050565b61024281610227565b811461024d57600080fd5b50565b60008151905061025f81610239565b92915050565b6000806040838503121561027c5761027b610202565b5b600061028a85828601610250565b925050602061029b85828601610250565b9150509250929050565b6102ae81610227565b82525050565b60006020820190506102c960008301846102a5565b92915050565b6118f0806102de6000396000f3fe608060405234801561001057600080fd5b50600436106100b45760003560e01c80638da5cb5b116100715780638da5cb5b146101695780639cd441da146101875780639d7de6b3146101a3578063dc5fa6c5146101bf578063e4f1f70a146101dd578063f2fde38b146101f9576100b4565b80630fc63d10146100b957806319e36f3b146100d757806341976e09146100f55780635f64b55b14610125578063715018a6146101435780638014a7aa1461014d575b600080fd5b6100c1610215565b6040516100ce919061110f565b60405180910390f35b6100df61023b565b6040516100ec9190611143565b60405180910390f35b61010f600480360381019061010a91906111a1565b610241565b60405161011c9190611143565b60405180910390f35b61012d610381565b60405161013a919061110f565b60405180910390f35b61014b6103a7565b005b610167600480360381019061016291906111fa565b6103bb565b005b6101716106ab565b60405161017e9190611236565b60405180910390f35b6101a1600480360381019061019c9190611251565b6106d4565b005b6101bd60048036038101906101b89190611251565b6108f7565b005b6101c7610b1a565b6040516101d49190611143565b60405180910390f35b6101f760048036038101906101f291906111fa565b610b20565b005b610213600480360381019061020e91906111a1565b610e10565b005b600160009054906101000a900473ffffffffffffffffffffffffffffffffffffffff1681565b60045481565b6000600160009054906101000a900473ffffffffffffffffffffffffffffffffffffffff1673ffffffffffffffffffffffffffffffffffffffff168273ffffffffffffffffffffffffffffffffffffffff16036102c257600354670de0b6b3a76400006004546102b191906112c0565b6102bb9190611331565b905061037c565b600260009054906101000a900473ffffffffffffffffffffffffffffffffffffffff1673ffffffffffffffffffffffffffffffffffffffff168273ffffffffffffffffffffffffffffffffffffffff160361034157600454670de0b6b3a764000060035461033091906112c0565b61033a9190611331565b905061037c565b6040517f08c379a0000000000000000000000000000000000000000000000000000000008152600401610373906113bf565b60405180910390fd5b919050565b600260009054906101000a900473ffffffffffffffffffffffffffffffffffffffff1681565b6103af610e96565b6103b96000610f1d565b565b600081116103fe576040517f08c379a00000000000000000000000000000000000000000000000000000000081526004016103f59061142b565b60405180910390fd5b600061040f82600454600354610fe1565b905060008111610454576040517f08c379a000000000000000000000000000000000000000000000000000000000815260040161044b90611497565b60405180910390fd5b806003541015610499576040517f08c379a000000000000000000000000000000000000000000000000000000000815260040161049090611529565b60405180910390fd5b81600460008282546104ab9190611549565b9250508190555080600360008282546104c4919061157d565b925050819055503373ffffffffffffffffffffffffffffffffffffffff167f631fb37dba9bbcb8b2f3be2d669e365ae9f1bd850cc57dfe8b7ccd7d979a2bba600260009054906101000a900473ffffffffffffffffffffffffffffffffffffffff1684600160009054906101000a900473ffffffffffffffffffffffffffffffffffffffff168560405161055b94939291906115b1565b60405180910390a2600260009054906101000a900473ffffffffffffffffffffffffffffffffffffffff1673ffffffffffffffffffffffffffffffffffffffff166323b872dd3330856040518463ffffffff1660e01b81526004016105c2939291906115f6565b6020604051808303816000875af11580156105e1573d6000803e3d6000fd5b505050506040513d601f19601f820116820180604052508101906106059190611665565b50600160009054906101000a900473ffffffffffffffffffffffffffffffffffffffff1673ffffffffffffffffffffffffffffffffffffffff1663a9059cbb33836040518363ffffffff1660e01b8152600401610663929190611692565b6020604051808303816000875af1158015610682573d6000803e3d6000fd5b505050506040513d601f19601f820116820180604052508101906106a69190611665565b505050565b60008060009054906101000a900473ffffffffffffffffffffffffffffffffffffffff16905090565b6106dc610e96565b6000821180156106ec5750600081115b61072b576040517f08c379a000000000000000000000000000000000000000000000000000000000815260040161072290611707565b60405180910390fd5b600160009054906101000a900473ffffffffffffffffffffffffffffffffffffffff1673ffffffffffffffffffffffffffffffffffffffff166323b872dd3330856040518463ffffffff1660e01b815260040161078a939291906115f6565b6020604051808303816000875af11580156107a9573d6000803e3d6000fd5b505050506040513d601f19601f820116820180604052508101906107cd9190611665565b50600260009054906101000a900473ffffffffffffffffffffffffffffffffffffffff1673ffffffffffffffffffffffffffffffffffffffff166323b872dd3330846040518463ffffffff1660e01b815260040161082d939291906115f6565b6020604051808303816000875af115801561084c573d6000803e3d6000fd5b505050506040513d601f19601f820116820180604052508101906108709190611665565b5081600360008282546108839190611549565b92505081905550806004600082825461089c9190611549565b925050819055503373ffffffffffffffffffffffffffffffffffffffff167fac1d76749e5447b7b16f5ab61447e1bd502f3bb4807af3b28e620d1700a6ee4583836040516108eb929190611727565b60405180910390a25050565b6108ff610e96565b600354821115801561091357506004548111155b610952576040517f08c379a00000000000000000000000000000000000000000000000000000000081526004016109499061179c565b60405180910390fd5b8160036000828254610964919061157d565b92505081905550806004600082825461097d919061157d565b925050819055503373ffffffffffffffffffffffffffffffffffffffff167f96cd817c6329656790ef8fba7675405193677d39619571282f5e21f3a98cd05983836040516109cc929190611727565b60405180910390a2600160009054906101000a900473ffffffffffffffffffffffffffffffffffffffff1673ffffffffffffffffffffffffffffffffffffffff1663a9059cbb33846040518363ffffffff1660e01b8152600401610a31929190611692565b6020604051808303816000875af1158015610a50573d6000803e3d6000fd5b505050506040513d601f19601f82011682018060405250810190610a749190611665565b50600260009054906101000a900473ffffffffffffffffffffffffffffffffffffffff1673ffffffffffffffffffffffffffffffffffffffff1663a9059cbb33836040518363ffffffff1660e01b8152600401610ad2929190611692565b6020604051808303816000875af1158015610af1573d6000803e3d6000fd5b505050506040513d601f19601f82011682018060405250810190610b159190611665565b505050565b60035481565b60008111610b63576040517f08c379a0000000000000000000000000000000000000000000000000000000008152600401610b5a9061142b565b60405180910390fd5b6000610b7482600354600454610fe1565b905060008111610bb9576040517f08c379a0000000000000000000000000000000000000000000000000000000008152600401610bb090611497565b60405180910390fd5b806004541015610bfe576040517f08c379a0000000000000000000000000000000000000000000000000000000008152600401610bf59061182e565b60405180910390fd5b8160036000828254610c109190611549565b925050819055508060046000828254610c29919061157d565b925050819055503373ffffffffffffffffffffffffffffffffffffffff167f631fb37dba9bbcb8b2f3be2d669e365ae9f1bd850cc57dfe8b7ccd7d979a2bba600160009054906101000a900473ffffffffffffffffffffffffffffffffffffffff1684600260009054906101000a900473ffffffffffffffffffffffffffffffffffffffff1685604051610cc094939291906115b1565b60405180910390a2600160009054906101000a900473ffffffffffffffffffffffffffffffffffffffff1673ffffffffffffffffffffffffffffffffffffffff166323b872dd3330856040518463ffffffff1660e01b8152600401610d27939291906115f6565b6020604051808303816000875af1158015610d46573d6000803e3d6000fd5b505050506040513d601f19601f82011682018060405250810190610d6a9190611665565b50600260009054906101000a900473ffffffffffffffffffffffffffffffffffffffff1673ffffffffffffffffffffffffffffffffffffffff1663a9059cbb33836040518363ffffffff1660e01b8152600401610dc8929190611692565b6020604051808303816000875af1158015610de7573d6000803e3d6000fd5b505050506040513d601f19601f82011682018060405250810190610e0b9190611665565b505050565b610e18610e96565b600073ffffffffffffffffffffffffffffffffffffffff168173ffffffffffffffffffffffffffffffffffffffff1603610e8a5760006040517f1e4fbdf7000000000000000000000000000000000000000000000000000000008152600401610e819190611236565b60405180910390fd5b610e9381610f1d565b50565b610e9e611088565b73ffffffffffffffffffffffffffffffffffffffff16610ebc6106ab565b73ffffffffffffffffffffffffffffffffffffffff1614610f1b57610edf611088565b6040517f118cdaa7000000000000000000000000000000000000000000000000000000008152600401610f129190611236565b60405180910390fd5b565b60008060009054906101000a900473ffffffffffffffffffffffffffffffffffffffff169050816000806101000a81548173ffffffffffffffffffffffffffffffffffffffff021916908373ffffffffffffffffffffffffffffffffffffffff1602179055508173ffffffffffffffffffffffffffffffffffffffff168173ffffffffffffffffffffffffffffffffffffffff167f8be0079c531659141344cd1fd0a4f28419497f9722a3daafe3b4186f6b6457e060405160405180910390a35050565b60008083118015610ff25750600082115b611031576040517f08c379a00000000000000000000000000000000000000000000000000000000081526004016110289061189a565b60405180910390fd5b60006103e58561104191906112c0565b90506000838261105191906112c0565b90506000826103e88761106491906112c0565b61106e9190611549565b9050808261107c9190611331565b93505050509392505050565b600033905090565b600073ffffffffffffffffffffffffffffffffffffffff82169050919050565b6000819050919050565b60006110d56110d06110cb84611090565b6110b0565b611090565b9050919050565b60006110e7826110ba565b9050919050565b60006110f9826110dc565b9050919050565b611109816110ee565b82525050565b60006020820190506111246000830184611100565b92915050565b6000819050919050565b61113d8161112a565b82525050565b60006020820190506111586000830184611134565b92915050565b600080fd5b600061116e82611090565b9050919050565b61117e81611163565b811461118957600080fd5b50565b60008135905061119b81611175565b92915050565b6000602082840312156111b7576111b661115e565b5b60006111c58482850161118c565b91505092915050565b6111d78161112a565b81146111e257600080fd5b50565b6000813590506111f4816111ce565b92915050565b6000602082840312156112105761120f61115e565b5b600061121e848285016111e5565b91505092915050565b61123081611163565b82525050565b600060208201905061124b6000830184611227565b92915050565b600080604083850312156112685761126761115e565b5b6000611276858286016111e5565b9250506020611287858286016111e5565b9150509250929050565b7f4e487b7100000000000000000000000000000000000000000000000000000000600052601160045260246000fd5b60006112cb8261112a565b91506112d68361112a565b92508282026112e48161112a565b915082820484148315176112fb576112fa611291565b5b5092915050565b7f4e487b7100000000000000000000000000000000000000000000000000000000600052601260045260246000fd5b600061133c8261112a565b91506113478361112a565b92508261135757611356611302565b5b828204905092915050565b600082825260208201905092915050565b7f496e76616c696420746f6b656e20616464726573730000000000000000000000600082015250565b60006113a9601583611362565b91506113b482611373565b602082019050919050565b600060208201905081810360008301526113d88161139c565b9050919050565b7f416d6f756e74206d7573742062652067726561746572207468616e2030000000600082015250565b6000611415601d83611362565b9150611420826113df565b602082019050919050565b6000602082019050818103600083015261144481611408565b9050919050565b7f496e73756666696369656e74206f757470757420616d6f756e74000000000000600082015250565b6000611481601a83611362565b915061148c8261144b565b602082019050919050565b600060208201905081810360008301526114b081611474565b9050919050565b7f496e73756666696369656e74206c697175696469747920666f7220546f6b656e60008201527f4100000000000000000000000000000000000000000000000000000000000000602082015250565b6000611513602183611362565b915061151e826114b7565b604082019050919050565b6000602082019050818103600083015261154281611506565b9050919050565b60006115548261112a565b915061155f8361112a565b925082820190508082111561157757611576611291565b5b92915050565b60006115888261112a565b91506115938361112a565b92508282039050818111156115ab576115aa611291565b5b92915050565b60006080820190506115c66000830187611227565b6115d36020830186611134565b6115e06040830185611227565b6115ed6060830184611134565b95945050505050565b600060608201905061160b6000830186611227565b6116186020830185611227565b6116256040830184611134565b949350505050565b60008115159050919050565b6116428161162d565b811461164d57600080fd5b50565b60008151905061165f81611639565b92915050565b60006020828403121561167b5761167a61115e565b5b600061168984828501611650565b91505092915050565b60006040820190506116a76000830185611227565b6116b46020830184611134565b9392505050565b7f416d6f756e7473206d7573742062652067726561746572207468616e20300000600082015250565b60006116f1601e83611362565b91506116fc826116bb565b602082019050919050565b60006020820190508181036000830152611720816116e4565b9050919050565b600060408201905061173c6000830185611134565b6117496020830184611134565b9392505050565b7f4e6f7420656e6f756768206c6971756964697479000000000000000000000000600082015250565b6000611786601483611362565b915061179182611750565b602082019050919050565b600060208201905081810360008301526117b581611779565b9050919050565b7f496e73756666696369656e74206c697175696469747920666f7220546f6b656e60008201527f4200000000000000000000000000000000000000000000000000000000000000602082015250565b6000611818602183611362565b9150611823826117bc565b604082019050919050565b600060208201905081810360008301526118478161180b565b9050919050565b7f496e73756666696369656e74206c697175696469747900000000000000000000600082015250565b6000611884601683611362565b915061188f8261184e565b602082019050919050565b600060208201905081810360008301526118b381611877565b905091905056fea2646970667358221220b4bb38bdaf175aa70814435b1b93503440d914f5ae90fa00781508cefb779d9c64736f6c634300081c0033",
  "linkReferences": {},
  "deployedLinkReferences": {}
}